:020000040000FA
:040000000128F92FAB
:100EA4000A3421009D140800163021009700080020
:100EB40021001C08F1001B08F00008003830210054
:100EC4009900220096010800031021009D1C0314C0
:100ED4000030093D0800013021009D009E019F0162
:100EE4009B019C010800C0302C0099007F309800C1
:100EF400C03097000800FF3020009B009A01911039
:100F040004309C000800F1007108F000F00DF00DB1
:100F140021001D087006833970069D001D14080009
:100F24008731BB278731873160278731873156273F
:100F3400873187317527873187317D27873187311D
:100F44006D27873108007108F3007008F200F3364A
:100F5400F20CF336F20C72082C0098007008033976
:100F6400F2000530F235FF3E031DB42F72359700B1
:100F7400080022008C018D018E013B3021008C0081
:100F840010308D008E0123008E0130308D0017301B
:100F94008C0024008D018C012100951722009D01F5
:100FA40008008731922787310A307606031DDB2F2C
:100FB400DC2FE12F0330F4007408F600E52F0A302B
:100FC400F4007408F6007608873185278731873165
:100FD40053278731873166278731003A0319F32F66
:100FE400F42FEC2F87315A278731D62F01288731E8
:0C0FF40052278731F600F5012000D32FB2
:020000040001F9
:04000E00E4FFFFFF0D
:00000001FF
