:020000040000FA
:0400000000000C28C8
:100008007E1480318B1A0B1D0A280C267E100900DD
:100018000D28C6308400853085005B3086000030AE
:1000280087000A30FA2548308400003085001330F4
:1000380000267E1020002028DA258B1701302B237C
:10004800B630F0000530F10012261F2603302000DC
:100058005F0603193128033032280A30C0004008EF
:10006800DF0003305F06031D43285F08742570080E
:100078002000CC007108CD00CE01CF014A285F08CE
:1000880074257108F5007008F4008C2520008C1A7E
:1000980062285A08031D62280130D3070030D43D76
:1000A8000B305402B93003195302031C5F28013086
:1000B800C0004008DA0022008E166628D301D40159
:1000C80022008E1220005A0803195E298C1A8728EC
:1000D8006A2802302B239A284F08CB004E08CA0002
:1000E8004D08C9004C08C80003302B239A284F0834
:1000F800E4004E08E3004D08E2004C08E100D72474
:1001080001302B239A286008C000C1014108003A39
:1001180003198F289A284008013A03196D28033AD1
:1001280003197028013A03197B289A28DA015E29F5
:100138000A305F06031D2A280030A3000030A20001
:100148000330A100E830A0005008C0005108C100E9
:100158005208C2000030C21BFF30C3004F08F30032
:100168004E08F2004D08F1004C08F0005E08F70058
:100178005D08F6005C08F5005B08F400A824700828
:10018800C4007108C5007208C6007308C70040089B
:10019800C4024108C53B4208C63B4308C73B470861
:1001A800A7004608A6004508A5004408A400AA22FE
:1001B8002308CF002208CE002108CD002008CC005B
:1001C8004F08F3004E08F2004D08F1004C08F0000B
:1001D80072212A28590803192A28031022000E1C04
:1001E8000314031CFA2822000E14FC2822000E1007
:1001F80003108E1C0314031C042922008E140629E4
:1002080022008E1003100E1D0314031C0E29220059
:100218000E15102922000E1103108E1D0314031C45
:10022800182922008E151A2922008E1103100E1E7D
:100238000314031C222922000E16242922000E1260
:100248002000D9012A28590803192A280310220056
:100258000E1F0314031C332922000E173529220010
:100268000E1303108E1F0314031C3D2922008E1742
:100278003F2922008E1303108D1E0314031C4729E7
:1002880022008D16492922008D1203100D1F031418
:10029800031C512922000D17532922000D130310A6
:1002A8008D1F0314031C5B2922008D1724292200AB
:1002B8008D1324296008C000C1014108003A0319C0
:1002C80066292A284008013A03199C28033A031989
:1002D800EE28013A031927292A280C2822000E1093
:1002E8008E100E118E110E128E160E138E138D1285
:1002F8000D138D13F31B8D297308031D8F297208A5
:10030800031D8F297108031D8F29363070020318C9
:100318008F290E140800F31B9E297308031DA129B9
:100328007208031DA1297108031DA1296C307002F0
:100338000318A1290E148E140800F31BB0297308A2
:10034800031DB2297208031DB2297108031DB229C1
:10035800A23070020318B2298E140800F31BC129B9
:100368007308031DC4297208031DC4297108031DDD
:10037800C429D73070020318C4298E140E1508003A
:10038800F31BD2297308031DD4297208031DD4292D
:100398000D3070020130713B0318D4290E15080086
:1003A800F31BE2297308031DE5297208031DE529DB
:1003B800433070020130713B0318E5290E158E1584
:1003C8000800F31BF3297308031DF5297208031DA0
:1003D800F529793070020130713B0318F5298E1523
:1003E8000800F31B032A7308031D062A7208031D5D
:1003F800062AAF3070020130713B0318062A8E15A9
:100408000E160800F31B142A7308031D162A720817
:10041800031D162AE53070020130713B0318162AB5
:100428000E160800F31B08007308031D242A72081F
:10043800031D242A1A3070020230713B031C080085
:10044800F31B322A7308031D342A7208031D342A49
:10045800503070020230713B0318342A0E1708001E
:10046800F31B422A7308031D452A7208031D452AF7
:10047800863070020230713B0318452A0E178E171A
:100488000800F31B532A7308031D552A7208031D1D
:10049800552ABC3070020230713B0318552A8E175A
:1004A8000800F31B632A7308031D662A7208031DDC
:1004B800662AF23070020230713B0318662A8E17E2
:1004C8008D160800F31B742A7308031D762A720818
:1004D800031D762A283070020330713B0318762AF0
:1004E8008D160800F31B842A7308031D872A7208D7
:1004F800031D872A5D3070020330713B0318872A79
:100508008D160D170800F31B952A7308031D972AEB
:100518007208031D972A933070020330713B031849
:10052800972A0D170800F31BA52A7308031DA82A8C
:100538007208031DA82AC93070020330713B0318E2
:10054800A82A0D178D1708008D170800A901A31FE9
:10055800BA2AA009A109A209A309A00A0319A10A94
:100568000319A20A0319A30AA901A90AA71FCB2ADA
:10057800A409A509A609A709A40A0319A50A031924
:10058800A60A0319A70A0130FC007C08A906003056
:10059800AD000030AC000030AB000030AA002308EA
:1005A8002204210420040319142BA801A80AA31B60
:1005B800E92A0130A035A10DA20DA30D890BDE2A71
:1005C8000130FC007C08A807DB2A0130AA35AB0DF6
:1005D800AC0DAD0D890BEA2A23082702031DFE2A5C
:1005E80022082602031DFE2A21082502031DFE2AD1
:1005F80020082402031C092B2008A4022108A53B7B
:100608002208A63B2308A73B2A140130A336A20CD4
:10061800A10CA00C890B0A2B0130A802031DE92AA2
:1006280029080319222BAA09AB09AC09AD09AA0AA2
:100638000319AB0A0319AC0A0319AD0A2D08A30064
:100648002C08A2002B08A1002A08A00008002000FE
:10065800A400240860060319080022000E108E105A
:100668000E118E110E128E120E138E138D120D1383
:100678008D137E2B9A2348086102A0004908623B2B
:10068800A1004A08633BA2004B08643BA30023086F
:10069800F3002208F2002108F1002008F0000030E1
:1006A800F7000F30F6009C30F5001830F40056249F
:1006B8007308DE007208DD007108DC007008DB00DA
:1006C8005B08F0005C08F1005D08F2004808F300E0
:1006D8004908F4004A08F50001257008D00071089F
:1006E800D1007208D200922B22000E14922B220005
:1006F8008D17922B20002408A000A1012108003AA0
:100708000319872B922B2008013A03193E2B033A31
:100718000319782B013A03197B2B922B2000D50162
:10072800D6012408A0002008E00008000030CB0013
:100738000030CA000030C9000030C800FC30F000AA
:100748000730F10043257008F3007108F400F50143
:10075800F6011030F335F40DF50DF60D890BAE2BBF
:1007680073082000C8077408C93D7508CA3D760893
:10077800CB3DFD30F0000730F10043257008F30051
:100788007108F400F501F60173082000C804740824
:10079800C9047508CA047608CB040030E4000030A8
:1007A800E3000030E2000030E100FE30F0000730E6
:1007B800F10043257008F3007108F400F501F60113
:1007C8001030F335F40DF50DF60D890BE52B730894
:1007D8002000E1077408E23D7508E33D7608E43D32
:1007E800FF30F0000730F100432570082000E107D2
:1007F8007108E23D0030E33DE43D0800F030730548
:10080800F90007307405FA0000308B1B0130FB003B
:100818007A087406031D122C79087306031D080054
:100828008B137408F1007308F000272515131515AC
:100838009516FC01730823009100740892007C351A
:100848007507F600760886008701010893007C3555
:100858007507F600760886008701403FF700413F9C
:10086800F800780894000F307C060319951255306B
:100878009600AA3096009514000000000130F30796
:100888000030F43D0130F6007608FC0710307C0299
:10089800031C1E2C230015117B0C031C8B1303183F
:1008A8008B1708000030FC000030FB000030FA0015
:1008B8000030F900730872047104700403199F2C46
:1008C800FD01FD0AF31B742C0130F035F10DF20D1A
:1008D800F30D890B692C0130F8007808FD07662CA8
:1008E8000130F935FA0DFB0DFC0D890B752C7308D9
:1008F8007702031D892C72087602031D892C710862
:100908007502031D892C70087402031C942C70084E
:10091800F4027108F53B7208F63B7308F73B79144B
:100928000130F336F20CF10CF00C890B952C0130E8
:10093800FD02031D742C7C08F3007B08F2007A0882
:10094800F1007908F00008000030FB000030FA00E0
:100958000030F9000030F800701CBA2C7408F80751
:100968007508F93D7608FA3D7708FB3D0130F43506
:10097800F50DF60DF70D890BBB2C0130F336F20C93
:10098800F10CF00C890BC22C73087204710470040A
:10099800031DB02C7B08F3007A08F2007908F100F7
:1009A8007808F00008001130E4002230E30033300A
:1009B800E2004430E1001130CB00DD30CA00EE30F7
:1009C800C900FF30C8006208BF006108BE006408A3
:1009D800BD006308BC004908BB004808BA004B08C2
:1009E800B9004A08B800F030F3000730F4002030AE
:1009F800FD007D08F500022408000030F6000030F4
:100A0800F7000030F800701C0F2D7308F607740803
:100A1800F73D7508F83D0130F335F40DF50D890BF8
:100A2800102D0130F236F10CF00C890B162D7208DE
:100A380071047004031D072D7608F0007708F10093
:100A48007808F200080000308B1B0130F2008B138D
:100A580070082300910071089200151315161515DA
:100A680055309600AA309600951400000000230027
:100A78001511720C031C8B1303188B170800003018
:100A88008B1B0130F2008B13700823009100710852
:100A980092001513151400000000720C031C8B1330
:100AA80003188B1723001408F1001308F00008003E
:100AB80022008C018D018E013B3021008C0010300A
:100AC8008D008E0123008E0130308D0013308C0094
:100AD80024008D018C012100951722009D0108003A
:100AE800F3007308F200F20DF20D21001D087206E2
:100AF800833972069D001D14003200320000210067
:100B08009D149D18852D1C08F1001B08F000080095
:100B18007508F7007408F600F736F60CF736F60C89
:100B280076082C00980074080339F6000530F6356D
:100B3800FF3E031D9B2D7635970008002100150800
:100B4800C039113895000630200095000630F200B3
:100B58007208E7000B118B162130F0000630F10007
:100B6800122608000130D5070030D63D0030560265
:100B7800C93003195502031C0800D901D90AD50147
:100B8800D6010800E8340334003400340A34013450
:100B9800FF34033400340034650866040319080080
:100BA80066088A0065080A00853108005C25062663
:100BB8001B26F225EA25E225A2250800FF302000A1
:100BC8009B009A0191101C309C000800D0302C002A
:100BD8009900FF309800C03097000800C0309E0090
:100BE8009F019B019C0101309D000800FE0012003E
:100BF8001E00FE0BFB2D0034640080010131890BBF
:100C0800012E00346A302100990022009601080064
:100C18000B11200067089500D02508007108E60030
:100C28007008E5000800E834033400340034163056
:0C0C38002100970008001C1508000800AF
:020000040001F9
:04000E00E43FFF1FAD
:00000001FF
