:020000040000FA
:0400000000000C28C8
:100008007E1480318B1A0B1D0A2839267E100900B0
:100018000D28FE308400853085005C308600003075
:1000280087000930272648308400003085001430C6
:100038002D267E102000202807268B170130B82295
:10004800E430F0000530F1003F264C260330200054
:10005800600603193128033032280A30C0004008EE
:10006800E00003306006031D43286008A2257008DD
:100078002000CC007108CD00CE01CF0157286008C0
:10008800A22570082000C0007108C100C035C10D4C
:100098004008383EF400FF30413DF500BA250030F5
:1000A800F400F500BA2520008C1A72285B08031D9D
:1000B80072280130D3070030D43D0B305402B930D8
:1000C80003195302031C6F280130C0004008DB00ED
:1000D80022008E12742822008E167428D301D401AF
:1000E80020005B0803196C298C1A9528782802309F
:1000F800B822A8284F08CB004E08CA004D08C900EE
:100108004C08C8000330B822A8284F08E4004E085D
:10011800E3004D08E2004C08E10035250130B82223
:10012800A8285908C000C1014108003A03199D28B0
:10013800A8284008013A03197B28033A03197E28A6
:10014800013A03198928A828DB016C290A306006BE
:10015800031D2A280030A3000030A2000330A100AC
:10016800E830A0005008C0005108C1005208C20081
:100178000030C21BFF30C3004F08F3004E08F200E6
:100188004D08F1004C08F0005F08F7005E08F60023
:100198005D08F5005C08F400E0247008C4007108EC
:1001A800C5007208C6007308C7004008C4024108A9
:1001B800C53B4208C63B4308C73B4708A70046085B
:1001C800A6004508A5004408A40051232308CF0031
:1001D8002208CE002108CD002008CC004F08F300EB
:1001E8004E08F2004D08F1004C08F00080212A2842
:1001F8005A0803192A28031022000E1C0314031C92
:10020800082922000E140A2922000E1003108E1C41
:100218000314031C122922008E14142922008E10A4
:1002280003100E1D0314031C1C2922000E151E2981
:1002380022000E1103108E1D0314031C2629220010
:100248008E15282922008E1103100E1E0314031C7C
:10025800302922000E16322922000E122000DA015F
:100268002A285A0803192A28031022000E1F0314EB
:10027800031C412922000E17432922000E130310E4
:100288008E1F0314031C4B2922008E174D292200B0
:100298008E1303108D1E0314031C552922008D167E
:1002A800572922008D1203100D1F0314031C5F2908
:1002B80022000D17612922000D1303108D1F03144E
:1002C800031C692922008D17322922008D13322937
:1002D8005908C000C1014108003A031974292A28A5
:1002E8004008013A0319AA28033A0319FC28013ADD
:1002F800031935292A280C2822000E108E100E11F9
:100308008E110E128E160E138E138D120D138D1361
:10031800F31B9B297308031D9D297208031D9D2942
:100328007108031D9D293630700203189D290E148B
:100338000800F31BAC297308031DAF297208031DBD
:10034800AF297108031DAF296C3070020318AF295B
:100358000E148E140800F31BBE297308031DC02950
:100368007208031DC0297108031DC029A23070023C
:100378000318C0298E140800F31BCF297308031D26
:10038800D2297208031DD2297108031DD229D7303A
:1003980070020318D2298E140E150800F31BE029E9
:1003A8007308031DE2297208031DE2290D3070024B
:1003B8000130713B0318E2290E150800F31BF029E0
:1003C8007308031DF3297208031DF32943307002D3
:1003D8000130713B0318F3290E158E150800F31B25
:1003E800012A7308031D032A7208031D032A7930A2
:1003F80070020130713B0318032A8E150800F31BA5
:10040800112A7308031D142A7208031D142AAF3019
:1004180070020130713B0318142A8E150E1608005D
:10042800F31B222A7308031D242A7208031D242A99
:10043800E53070020130713B0318242A0E160800BB
:10044800F31B08007308031D322A7208031D322AA1
:100458001A3070020230713B031C0800F31B402A5B
:100468007308031D422A7208031D422A5030700285
:100478000230713B0318422A0E170800F31B502A5A
:100488007308031D532A7208031D532A863070020D
:100498000230713B0318532A0E178E170800F31BFE
:1004A800612A7308031D632A7208031D632ABC307E
:1004B80070020230713B0318632A8E170800F31B81
:1004C800712A7308031D742A7208031D742AF230F6
:1004D80070020230713B0318742A8E178D160800BB
:1004E800F31B822A7308031D842A7208031D842AB9
:1004F800283070020330713B0318842A8D160800D7
:10050800F31B922A7308031D952A7208031D952A66
:100518005D3070020330713B0318952A8D160D1754
:100528000800F31BA32A7308031DA52A7208031DDC
:10053800A52A933070020330713B0318A52A0D17C2
:100548000800F31BB32A7308031DB62A7208031D9B
:10055800B62AC93070020330713B0318B62A0D174A
:100568008D1708008D1708002000A40024085906DC
:100578000319080022000E108E100E118E110E1293
:100588008E120E138E138D120D138D13352BD2234D
:100598006408031DD62A6308031DD62A04306202A4
:1005A800031CDE2A0030E4000030E3000330E200E0
:1005B800FF30E1004B086402031DEC2A4A0863027D
:1005C800031DEC2A49086202031DEC2A480861024F
:1005D8000318F62A0030CB000030CA000030C900EA
:1005E8000030C80048086102A0004908623BA10029
:1005F8004A08633BA2004B08643BA3002308F300AE
:100608002208F2002108F1002008F0000030F7006D
:100618000F30F6009C30F5001830F4008E24730873
:10062800DF007208DE007108DD007008DC005C087D
:10063800F0005D08F1005E08F2004808F300490880
:10064800F4004A08F5000F257008D0007108D100A1
:100658007208D200492B22000E14492B22008D1754
:10066800492B20002408A000A1012108003A031901
:100678003E2B492B2008013A0319CB2A033A0319C8
:100688002F2B013A0319322B492B2000D501D60113
:100698002408A0002008D9000800A901A31F612B85
:1006A800A009A109A209A309A00A0319A10A03190B
:1006B800A20A0319A30AA901A90AA71F722BA40950
:1006C800A509A609A709A40A0319A50A0319A60AD0
:1006D8000319A70A0130FC007C08A9060030AD0008
:1006E8000030AC000030AB000030AA002308220420
:1006F800210420040319BB2BA801A80AA31B902BD3
:100708000130A035A10DA20DA30D890B852B013059
:10071800FC007C08A807822B0130AA35AB0DAC0D74
:10072800AD0D890B912B23082702031DA52B220849
:100738002602031DA52B21082502031DA52B200831
:100748002402031CB02B2008A4022108A53B220880
:10075800A63B2308A73B2A140130A336A20CA10C00
:10076800A00C890BB12B0130A802031D902B29087E
:100778000319C92BAA09AB09AC09AD09AA0A0319BF
:10078800AB0A0319AC0A0319AD0A2D08A3002C08FB
:10079800A2002B08A1002A08A00008000030CB0006
:1007A8000030CA000030C9000030C800FC30F0003A
:1007B8000730F10071257008F3007108F400F501A5
:1007C800F6011030F335F40DF50DF60D890BE62B17
:1007D80073082000C8077408C93D7508CA3D760823
:1007E800CB3DFD30F0000730F10071257008F300B3
:1007F8007108F400F501F60173082000C8047408B4
:10080800C9047508CA047608CB040030E400003037
:10081800E3000030E2000030E100FE30F000073075
:10082800F10071257008F3007108F400F501F60174
:100838001030F335F40DF50DF60D890B1D2C7308EA
:100848002000E1077408E23D7508E33D7608E43DC1
:10085800FF30F0000730F100712570082000E10733
:100868007108E23D0030E33DE43D0800F0307305D7
:10087800F90007307405FA0000308B1B0130FB00CB
:100888007A087406031D4A2C79087306031D0800AC
:100898008B137408F1007308F0005525151315150E
:1008A8009516FC01730823009100740892007C35AA
:1008B8007507F600760886008701010893007C35E5
:1008C8007507F600760886008701403FF700413F2C
:1008D800F800780894000F307C06031995125530FB
:1008E8009600AA3096009514000000000130F30726
:1008F8000030F43D0130F6007608FC0710307C0229
:10090800031C562C230015117B0C031C8B13031896
:100918008B1708000030FC000030FB000030FA00A4
:100928000030F90073087204710470040319D72C9D
:10093800FD01FD0AF31BAC2C0130F035F10DF20D71
:10094800F30D890BA12C0130F8007808FD079E2CC7
:100958000130F935FA0DFB0DFC0D890BAD2C730830
:100968007702031DC12C72087602031DC12C710881
:100978007502031DC12C70087402031CCC2C70086E
:10098800F4027108F53B7208F63B7308F73B7914DB
:100998000130F336F20CF10CF00C890BCD2C013040
:1009A800FD02031DAC2C7C08F3007B08F2007A08DA
:1009B800F1007908F00008000030FB000030FA0070
:1009C8000030F9000030F800701CF22C7408F807A9
:1009D8007508F93D7608FA3D7708FB3D0130F43596
:1009E800F50DF60DF70D890BF32C0130F336F20CEB
:1009F800F10CF00C890BFA2C730872047104700462
:100A0800031DE82C7B08F3007A08F2007908F1004E
:100A18007808F00008000030F6000030F7000030D9
:100A2800F800701C1D2D7308F6077408F73D75084B
:100A3800F83D0130F335F40DF50D890B1E2D01300D
:100A4800F236F10CF00C890B242D72087104700435
:100A5800031D152D7608F0007708F1007808F200DC
:100A68000800F030F0000730F1005525200062083A
:100A7800BF006108BE006408BD006308BC004908E7
:100A8800BB004808BA004B08B9004A08B800F03063
:100A9800F3000730F4002030FD007D08F5003A240B
:100AA800080000308B1B0130F2008B137008230004
:100AB80091007108920015131516151555309600FA
:100AC800AA30960095140000000023001511720C3E
:100AD800031C8B1303188B17080000308B1B013085
:100AE800F2008B137008230091007108920015130F
:100AF800151400000000720C031C8B1303188B17CD
:100B080023001408F1001308F000080022008C01EB
:100B18008D018E013B3021008C0010308D008E013C
:100B280023008E0130308D0013308C0024008D019D
:100B38008C012100951722009D010800F30073081D
:100B4800F200F20DF20D21001D08720683397206BB
:100B58009D001D1400320032000021009D149D18D4
:100B6800B32D1C08F1001B08F00008007508F700F9
:100B78007408F600F736F60CF736F60C76082C00F3
:100B8800980074080339F6000530F635FF3E031D5A
:100B9800C92D76359700080021001508C03911388D
:100BA80095000630200095000630F2007208E70034
:100BB8000B118B164E30F0000630F1003F2608006E
:100BC8000130D5070030D63D00305602C930031930
:100BD8005502031C0800DA01DA0AD501D60108001B
:100BE800650866040319080066088A0065080A0093
:100BF80085310800E8340334003400340A34FF3403
:100C08000334003400348A25332648261F26172645
:100C18000F26D0250800FF3020009B009A01911074
:100C28001C309C000800D0302C009900FF30980040
:100C3800C03097000800C0309E009F019B019C01B6
:100C480001309D000800FE0012001E00FE0B282E39
:100C58000034640080010131890B2E2E00346A3083
:100C6800210099002200960108000B112000670856
:100C78009500F42508007108E6007008E5000800F2
:100C8800E83403340034003416302100970008009B
:060C98001C150800080015
:020000040001F9
:04000E00E43FFF1FAD
:00000001FF
