:020000040000FA
:0400000000000C28C8
:100008007E1480318B1A0B1D0A28E9257E10090001
:100018000D28AE308400853085005E3086000030C3
:1000280087000930D7254A30840000308500143015
:10003800DD257E1020002028B7258B170130682287
:100048009430F0000530F100EF25FC250330200046
:10005800620603193128033032280A30C0004008EC
:10006800E20003306206031D432862085225700827
:100078002000CE007108CF00D001D101712862089C
:10008800522571082000C9007008C8004908C1003D
:100098004808C000C035C10D4008183EC8000030EF
:1000A800413DC9004908803AC00083304002031D21
:1000B8005F28E9304802031C6728E8302000C800A0
:1000C8000330C9006C282000C91F6C28C801C90169
:1000D8004908F1004808F0006A2520008C1A8C288D
:1000E8005D08031D8C280130D5070030D63D0B3044
:1000F8005602B93003195502031C89280130C00083
:100108004008DD0022008E128E2822008E168E28CE
:10011800D501D60120005D08031986298C1AAF285D
:10012800922802306822C2285108CD005008CC001D
:100138004F08CB004E08CA0003306822C228510875
:10014800E6005008E5004F08E4004E08E300E52407
:1001580001306822C2285B08C000C1014108003A8A
:100168000319B728C2284008013A03199528033A09
:1001780003199828013A0319A328C228DD01862902
:100188000A306206031D2A280030A3000030A200AE
:100198000330A100E830A0005208C0005308C10095
:1001A8005408C2000030C21BFF30C3005108F300DE
:1001B8005008F2004F08F1004E08F0006108F700FF
:1001C8006008F6005F08F5005E08F40090247008E7
:1001D800C4007108C5007208C6007308C70040084B
:1001E800C4024108C53B4208C63B4308C73B470811
:1001F800A7004608A6004508A5004408A400012356
:100208002308D1002208D0002108CF002008CE0002
:100218005108F3005008F2004F08F1004E08F000B2
:100228009A212A285C0803192A28031022000E1C88
:100238000314031C222922000E14242922000E1064
:1002480003108E1C0314031C2C2922008E142E2943
:1002580022008E1003100E1D0314031C36292200E1
:100268000E15382922000E1103108E1D0314031CCD
:10027800402922008E15422922008E1103100E1EDD
:100288000314031C4A2922000E164C2922000E12C0
:100298002000DC012A285C0803192A280310220000
:1002A8000E1F0314031C5B2922000E175D29220070
:1002B8000E1303108E1F0314031C652922008E17CA
:1002C800672922008E1303108D1E0314031C6F2947
:1002D80022008D16712922008D1203100D1F0314A0
:1002E800031C792922000D177B2922000D13031006
:1002F8008D1F0314031C832922008D174C2922000B
:100308008D134C295B08C000C1014108003A03194C
:100318008E292A284008013A0319C428033A0319E8
:100328001629013A03194F292A280C2822000E10F1
:100338008E100E118E110E128E160E138E138D1234
:100348000D138D13F31BB5297308031DBC297208FF
:10035800031DBC297108031DBC295D3070020318F8
:10036800BC290E148E140E158E150E168E16080046
:10037800F31BCB297308031DD1297208031DD1294A
:100388007108031DD129BA3070020318D1298E14BF
:100398000E158E150E168E160800F31BDF2973082E
:1003A800031DE4297208031DE42917307002013087
:1003B800713B0318E4290E158E150E168E160800CB
:1003C800F31BF2297308031DF6297208031DF62989
:1003D800743070020130713B0318F6298E150E1621
:1003E8008E160800F31B042A7308031D072A7208D7
:1003F800031D072AD13070020130713B0318072A08
:100408000E168E160800F31B152A7308031D172AEB
:100418007208031D172A2E3070020230713B031830
:10042800172A8E160800F31B252A7308031D282A8D
:100438007208031D282A8B3070020230713B0318A2
:10044800282A8E160E170800F31B362A7308031D78
:100458003A2A7208031D3A2AE83070020230713BCA
:1004680003183A2A8E160E178E170800F31B482A0F
:100478007308031D4D2A7208031D4D2A453070026A
:100488000330713B03184D2A8E160E178E178D16E2
:100498000800F31B5B2A7308031D612A7208031DF9
:1004A800612AA23070020330713B0318612A8E164C
:1004B8000E178E178D160D1708008E160E178E172D
:1004C8008D160D178D1708002000A40024085B0660
:1004D8000319080022000E108E100E118E110E1234
:1004E8008E120E138E138D120D138D13E52A82238F
:1004F8006608031D862A6508031D862A04306402DF
:10050800031C8E2A0030E6000030E5000330E400CA
:10051800FF30E3004D086602031D9C2A4C08650263
:10052800031D9C2A4B086402031D9C2A4A08630287
:100538000318A62A0030CD000030CC000030CB00D4
:100548000030CA004A086302A0004B08643BA100BF
:100558004C08653BA2004D08663BA3002308F30046
:100568002208F2002108F1002008F0000030F7000E
:100578000F30F6009C30F5001830F4003E24730864
:10058800E1007208E0007108DF007008DE005E0814
:10059800F0005F08F1006008F2004A08F3004B0819
:1005A800F4004C08F500BF247008D2007108D3008D
:1005B8007208D400F92A22000E14F92A22008D1795
:1005C800F92A20002408A000A1012108003A0319F3
:1005D800EE2AF92A2008013A03197B2A033A03195B
:1005E800DF2A013A0319E22AF92A2000D701D801A3
:1005F8002408A0002008DB000800A901A31F112B74
:10060800A009A109A209A309A00A0319A10A0319AB
:10061800A20A0319A30AA901A90AA71F222BA40940
:10062800A509A609A709A40A0319A50A0319A60A70
:100638000319A70A0130FC007C08A9060030AD00A8
:100648000030AC000030AB000030AA0023082204C0
:100658002104200403196B2BA801A80AA31B402B13
:100668000130A035A10DA20DA30D890B352B01304A
:10067800FC007C08A807322B0130AA35AB0DAC0D65
:10068800AD0D890B412B23082702031D552B22088A
:100698002602031D552B21082502031D552B200872
:1006A8002402031C602B2008A4022108A53B220871
:1006B800A63B2308A73B2A140130A336A20CA10CA1
:1006C800A00C890B612B0130A802031D402B2908BF
:1006D8000319792BAA09AB09AC09AD09AA0A0319B0
:1006E800AB0A0319AC0A0319AD0A2D08A3002C089C
:1006F800A2002B08A1002A08A00008000030CD00A5
:100708000030CC000030CB000030CA00FC30F000D4
:100718000730F10021257008F3007108F400F50195
:10072800F6011030F335F40DF50DF60D890B962B07
:1007380073082000CA077408CB3D7508CC3D7608BD
:10074800CD3DFD30F0000730F10021257008F300A1
:100758007108F400F501F60173082000CA04740852
:10076800CB047508CC047608CD040030E6000030D0
:10077800E5000030E4000030E300FE30F000073010
:10078800F10021257008F3007108F400F501F60165
:100798001030F335F40DF50DF60D890BCD2B7308DC
:1007A8002000E3077408E43D7508E53D7608E63D5A
:1007B800FF30F0000730F100212570082000E30722
:1007C8007108E43D0030E53DE63D0800F030730572
:1007D800F90007307405FA0000308B1B0130FB006C
:1007E8007A087406031DFA2B79087306031D08009E
:1007F8008B137408F1007308F000052515131515FF
:100808009516FC01730823009100740892007C354A
:100818007507F600760886008701010893007C3585
:100828007507F600760886008701403FF700413FCC
:10083800F800780894000F307C060319951255309B
:100848009600AA3096009514000000000130F307C6
:100858000030F43D0130F6007608FC0710307C02C9
:10086800031C062C230015117B0C031C8B13031887
:100878008B1708000030FC000030FB000030FA0045
:100888000030F90073087204710470040319872C8E
:10089800FD01FD0AF31B5C2C0130F035F10DF20D62
:1008A800F30D890B512C0130F8007808FD074E2C08
:1008B8000130F935FA0DFB0DFC0D890B5D2C730821
:1008C8007702031D712C72087602031D712C7108C2
:1008D8007502031D712C70087402031C7C2C7008AF
:1008E800F4027108F53B7208F63B7308F73B79147C
:1008F8000130F336F20CF10CF00C890B7D2C013031
:10090800FD02031D5C2C7C08F3007B08F2007A08CA
:10091800F1007908F00008000030FB000030FA0010
:100928000030F9000030F800701CA22C7408F80799
:100938007508F93D7608FA3D7708FB3D0130F43536
:10094800F50DF60DF70D890BA32C0130F336F20CDB
:10095800F10CF00C890BAA2C730872047104700452
:10096800031D982C7B08F3007A08F2007908F1003F
:100978007808F00008000030F6000030F70000307A
:10098800F800701CCD2C7308F6077408F73D75083D
:10099800F83D0130F335F40DF50D890BCE2C0130FF
:1009A800F236F10CF00C890BD42C72087104700427
:1009B800031DC52C7608F0007708F1007808F200CE
:1009C8000800F030F0000730F10005252000640829
:1009D800BF006308BE006608BD006508BC004B0880
:1009E800BB004A08BA004D08B9004C08B800F030FE
:1009F800F3000730F4002030FD007D08F500EA23FD
:100A0800080000308B1B0130F2008B1370082300A4
:100A1800910071089200151315161515553096009A
:100A2800AA30960095140000000023001511720CDE
:100A3800031C8B1303188B17080000308B1B013025
:100A4800F2008B13700823009100710892001513AF
:100A5800151400000000720C031C8B1303188B176D
:100A680023001408F1001308F000080022008C018C
:100A78008D018E013B3021008C0010308D008E01DD
:100A880023008E0130308D0013308C0024008D013E
:100A98008C012100951722009D010800F3007308BE
:100AA800F200F20DF20D21001D087206833972065C
:100AB8009D001D1400320032000021009D149D1875
:100AC800632D1C08F1001B08F00008007108F300F2
:100AD8007008F200F336F20CF336F20C72082C00B0
:100AE800980070080339F2000530F235FF3E031D07
:100AF800792D72359700080021001508C039113882
:100B080095000630200095000630F2007208E900D2
:100B18000B118B16FE30F0000530F100EF250800B0
:100B28000130D7070030D83D00305802C9300319CA
:100B38005702031C0800DC01DC0AD701D8010800B1
:100B4800670868040319080068088A0067080A002B
:100B580085310800E8340334003400340A34FF34A3
:100B68000334003400343A25E325F825CF25C7257A
:100B7800BF2580250800FF3020009B009A019110B6
:100B88001C309C000800D0302C009900FF309800E1
:100B9800C03097000800C0309E009F019B019C0157
:100BA80001309D000800FE0012001E00FE0BD82D2B
:100BB8000034640080010131890BDE2D00346A3075
:100BC800210099002200960108000B1120006908F5
:100BD8009500A42508007108E8007008E7000800DF
:100BE800E83403340034003416302100970008003C
:060BF8001C1508000800B6
:020000040001F9
:04000E00643FFF1F2D
:00000001FF
