:020000040000FA
:020000000C28CA
:100008007E1480318B1A0B1D0A28E9247E10090002
:100018000D28AE308400843085004A3086000030D8
:1000280087000930D724363084000030850014302A
:10003800DD247E1020002028B7248B170030B4233D
:100048009430F0000430F100EF24FC240330200049
:100058004E0603193128033032280A30AE002E0824
:10006800CE0003304E06031D43284E085224700864
:100078002000BA007108BB00BC01BD014A284E0827
:1000880052247108F5007008F4006A2420008C1AC4
:1000980062284908031D62280130C1070030C23DAB
:1000A8000B304202B93003194102031C5F280130AA
:1000B800AE002E08C90022008E166628C101C201B2
:1000C80022008E1220004908031995298C1ABE288F
:1000D8006A280130B423D1283D08B9003C08B8008B
:1000E8003B08B7003A08B6000230B423D1283D08CF
:1000F800D2003C08D1003B08D0003A08CF003608AF
:100108004F02AE003708503BAF003808513BB000F3
:100118003908523BB1003108F3003008F2002F08CB
:10012800F1002E08F0000030F7000F30F6009C3088
:10013800F5001830F40062237308CD007208CC0073
:100148007108CB007008CA004A08F0004B08F1009B
:100158004C08F2003608F3003708F4003808F500B8
:1001680014247008BE007108BF007208C000003077
:10017800B423D1284708AE00AF012F08003A03196D
:10018800C628D1282E08003A03196D28013A031908
:100198007028033A03197B28D128C90195290A3008
:1001A8004E06031D2A280030A3000030A2000330A9
:1001B800A100E830A0003E08AE003F08AF004008AC
:1001C800B0000030B01BFF30B1003D08F3003C0820
:1001D800F2003B08F1003A08F0004D08F7004C081F
:1001E800F6004B08F5004A08F400E5237008B20051
:1001F8007108B3007208B4007308B5002E08B20283
:100208002F08B33B3008B43B3108B53B3508A7008D
:100218003408A6003308A5003208A400E122230808
:10022800BD002208BC002108BB002008BA003D0818
:10023800F3003C08F2003B08F1003A08F000A9215D
:100248002A28480803192A28031022000E1C031420
:10025800031C312922000E14332922000E1003102A
:100268008E1C0314031C3B2922008E143D292200F6
:100278008E1003100E1D0314031C452922000E15B1
:10028800472922000E1103108E1D0314031C4F2949
:1002980022008E15512922008E1103100E1E031400
:1002A800031C592922000E165B2922000E12200079
:1002B800C8012A28480803192A28031022000E1FFB
:1002C8000314031C6A2922000E176C2922000E133E
:1002D80003108E1F0314031C742922008E1776291D
:1002E80022008E1303108D1E0314031C7E29220086
:1002F8008D16802922008D1203100D1F0314031C74
:10030800882922000D178A2922000D1303108D1F3A
:100318000314031C922922008D175B2922008D13D8
:100328005B294708AE00AF012F08003A03199D2941
:100338002A282E08003A0319D328013A0319252937
:10034800033A03195E292A280C2822000E108E1061
:100358000E118E110E128E160E138E138D120D1392
:100368008D13F31BC4297308031DC6297208031DC6
:10037800C6297108031DC629363070020318C6291C
:100388000E140800F31BD5297308031DD829720819
:10039800031DD8297108031DD8296C307002031871
:1003A800D8290E148E140800F31BE7297308031DBF
:1003B800E9297208031DE9297108031DE929A230FA
:1003C80070020318E9298E140800F31BF829730832
:1003D800031DFB297208031DFB297108031DFB2956
:1003E800D73070020318FB298E140E150800F31B72
:1003F800092A7308031D0B2A7208031D0B2A0D30E6
:1004080070020130713B03180B2A0E150800F31B0C
:10041800192A7308031D1C2A7208031D1C2A43305D
:1004280070020130713B03181C2A0E158E15080046
:10043800F31B2A2A7308031D2C2A7208031D2C2A71
:10044800793070020130713B03182C2A8E15080090
:10045800F31B3A2A7308031D3D2A7208031D3D2A1F
:10046800AF3070020130713B03183D2A8E150E160D
:100478000800F31B4B2A7308031D4D2A7208031D3D
:100488004D2AE53070020130713B03184D2A0E16D3
:100498000800F31B08007308031D5B2A7208031D7C
:1004A8005B2A1A3070020230713B031C0800F31BF0
:1004B800692A7308031D6B2A7208031D6B2A5030C2
:1004C80070020230713B03186B2A0E170800F31BE9
:1004D800792A7308031D7C2A7208031D7C2A86303A
:1004E80070020230713B03187C2A0E178E17080021
:1004F800F31B8A2A7308031D8C2A7208031D8C2A91
:10050800BC3070020230713B03188C2A8E17080029
:10051800F31B9A2A7308031D9D2A7208031D9D2A3E
:10052800F23070020230713B03189D2A8E178D1627
:100538000800F31BAB2A7308031DAD2A7208031DBC
:10054800AD2A283070020330713B0318AD2A8D168E
:100558000800F31BBB2A7308031DBE2A7208031D7B
:10056800BE2A5D3070020330713B0318BE2A8D1617
:100578000D170800F31BCC2A7308031DCE2A720836
:10058800031DCE2A933070020330713B0318CE2A24
:100598000D170800F31BDC2A7308031DDF2A7208F5
:1005A800031DDF2AC93070020330713B0318DF2AAC
:1005B8000D178D1708008D170800A901A31FF12A30
:1005C800A009A109A209A309A00A0319A10A0319EC
:1005D800A20A0319A30AA901A90AA71F022BA409A1
:1005E800A509A609A709A40A0319A50A0319A60AB1
:1005F8000319A70A0130FC007C08A9060030AD00E9
:100608000030AC000030AB000030AA002308220400
:100618002104200403194B2BA801A80AA31B202B93
:100628000130A035A10DA20DA30D890B152B0130AA
:10063800FC007C08A807122B0130AA35AB0DAC0DC5
:10064800AD0D890B212B23082702031D352B22080A
:100658002602031D352B21082502031D352B2008F2
:100668002402031C402B2008A4022108A53B2208D1
:10067800A63B2308A73B2A140130A336A20CA10CE1
:10068800A00C890B412B0130A802031D202B29083F
:100698000319592BAA09AB09AC09AD09AA0A031910
:1006A800AB0A0319AC0A0319AD0A2D08A3002C08DC
:1006B800A2002B08A1002A08A00008000030FC00B6
:1006C8000030FB000030FA000030F90073087204B3
:1006D800710470040319AB2BFD01FD0AF31B802B79
:1006E8000130F035F10DF20DF30D890B752B01304A
:1006F800F8007808FD07722B0130F935FA0DFB0D6B
:10070800FC0D890B812B73087702031D952B72084A
:100718007602031D952B71087502031D952B700831
:100728007402031CA02B7008F4027108F53B7208D0
:10073800F63B7308F73B79140130F336F20CF10CF1
:10074800F00C890BA12B0130FD02031D802B7C08C6
:10075800F3007B08F2007A08F1007908F00008003D
:10076800F200720847060319080022000E108E10C6
:100778000E118E110E128E120E138E138D120D1372
:100788008D13CA2B0E14DD2B8D17DD2B7208F0008C
:10079800F1017108003A0319D22BDD2B7008003AD9
:1007A8000319DD2B013A0319C62B033A0319C82B89
:1007B800DD2B2000C301C4017208F0007008C700D7
:1007C80008000030FB000030FA000030F90000306B
:1007D800F800701CF72B7408F8077508F93D7608BF
:1007E800FA3D7708FB3D0130F435F50DF60DF70DB0
:1007F800890BF82B0130F336F20CF10CF00C890B55
:10080800FF2B7308720471047004031DED2B7B0821
:10081800F3007A08F2007908F1007808F00008007F
:100828000030F6000030F7000030F800701C222C71
:100838007308F6077408F73D7508F83D0130F3357D
:10084800F40DF50D890B232C0130F236F10CF00C68
:10085800890B292C720871047004031D1A2C760860
:10086800F0007708F1007808F200080022008C01F7
:100878008D018E013B3021008C0010308D008E01DF
:1008880023008E0130308D0013308C0024008D0140
:100898008C012100951722009D010800F3007308C0
:1008A800F200F20DF20D21001D087206833972065E
:1008B8009D001D1400320032000021009D149D1877
:1008C800632C1C08F1001B08F00008007508F700ED
:1008D8007408F600F736F60CF736F60C76082C0096
:1008E800980074080339F6000530F635FF3E031DFD
:1008F800792C76359700080021001508C039113881
:1009080095000630200095000630F2007208D500E8
:100918000B118B16FE30F0000430F100EF240800B4
:100928000130C3070030C43D00304402C930031908
:100938004302031C0800C801C80AC301C401080017
:10094800530854040319080054088A0053080A007D
:1009580084310800E8340334003400340A34FF34A6
:100968000334003400343A24E324F824CF24C72481
:10097800BF2480240800FF3020009B009A019110BA
:100988001C309C000800D0302C009900FF309800E3
:10099800C0309700080001309D00C0309E009F01C4
:1009A8009B019C010800FE0012001E00FE0BD82CC3
:1009B8000034640080010131890BDE2C00346A3078
:1009C800210099002200960108000B11200055080B
:1009D8009500A42408007108D4007008D30008000A
:1009E800E83403340034003416302100970008003E
:0609F8001C1508000800B8
:020000040001F9
:04000E00E43FFF1FAD
:00000001FF
