:020000040000FA
:020000000C28CA
:100008007E1480318B1A0B1D0A280E247E100900DD
:100018000D2814308400843085001200BD001200C1
:10002800BE001200BF001200C0001200C100FD0196
:10003800B101B201B301B401B501B601B701B8010C
:10004800B901BA01BB01BC017E1020002B28E823AE
:100058008B170030EB21CE30F0000330F10019246B
:10006800262403302000410603193C2803303D288C
:100078000A30AD002D08C10041088C23710820000A
:10008800B0007008AF008C1A5E283C08031D5E287B
:100098000130B5070030B63D0B303602B9300319D0
:1000A8003502031C5B280130AD002D08BC0022007E
:1000B8008E166228B501B60122008E1220003C0877
:1000C8000319D4298C1A722866280130EB21852857
:1000D8000230EB2185280030EB2185287D08AD0012
:1000E800AE012E08003A03197A2885282D08003A0F
:1000F80003196928013A03196C28033A03196F2870
:100108008528BC01D4293B080319352822000E1480
:100118008E100E118E110E128E160E138E138D1256
:100128000D138D1335280A304106031DA128300808
:10013800F1002F08F000A423352822000E108E109D
:100148000E118E110E128E160E138E138D120D13A4
:100158008D1300302000A3000030A2000330A1005E
:10016800E830A0002F08F0003008F100F201F30198
:100178004008F7003F08F6003E08F5003D08F40087
:100188002C237308A7007208A6007108A500700840
:10019800A400DA2231082007AF003208213DB00060
:1001A80000303002363003192F020318DE282200EF
:1001B8000E143528003030026C3003192F02031852
:1001C800E82822000E14F02800303002A23003196B
:1001D8002F020318F22822008E143528003030022E
:1001E800D73003192F020318FC2822008E14042983
:1001F800013030020D3003192F020318062922009E
:100208000E15352801303002433003192F02031828
:10021800102922000E1518290130300279300319EF
:100228002F0203181A2922008E15352801303002B2
:10023800AF3003192F020318242922008E152C2908
:1002480001303002E53003192F0203182E2922004D
:100258000E163528023030021A3003192F02031CFB
:10026800352802303002503003192F0203183F2975
:1002780022000E17352802303002863003192F026B
:100288000318492922000E17512902303002BC30C8
:1002980003192F020318532922008E17352802301C
:1002A8003002F23003192F0203185D2922008E173D
:1002B800652903303002283003192F0203186729F3
:1002C80022008D163528033030025D3003192F02C5
:1002D8000318712922008D167929033030029330D2
:1002E80003192F0203187B2922000D173528033024
:1002F8003002C93003192F020318852922000D176F
:10030800862922008D1735283B0803193528031044
:1003180022000E1C0314031C942922000E14962993
:1003280022000E1003108E1C0314031C9E292200A9
:100338008E14A02922008E1003100E1D0314031C16
:10034800A82922000E15AA2922000E1103108E1DBD
:100358000314031CB22922008E15B42922008E1121
:1003680003100E1E0314031CBC2922000E16BE29FE
:1003780022000E122000BB0135283B08031935283E
:1003880022000E178E178D160D1703108D1F0314DC
:10039800031CD12922008D17BE2922008D13BE29E6
:1003A8007D08AD00AE012E08003A0319DC29352876
:1003B8002D08003A03199728013A03198829033AA6
:1003C8000319C129013A0319872835280C28F70091
:1003D80077087D060319080022000E108E100E11F2
:1003E8008E110E128E120E138E138D120D138D1385
:1003F800BF2AF930F0000730F1005B237008F300E2
:100408007108F400F501F6011830F335F40DF50D17
:10041800F60D890B092A7608FB007508FA0074089E
:10042800F9007308F800FA30F0000730F1005B2398
:100438007008F3007108F400F501F6011030F33587
:10044800F40DF50DF60D890B232A7308F8077408C7
:10045800F93D7508FA3D7608FB3DFB30F0000730A2
:10046800F1005B237008F400F3017308F8077408BF
:10047800F93D0030FA3DFB3DFC30F0000730F1005B
:100488005B237008F8077108F93D0030FA3DFB3D21
:10049800780A031D612A790A031D612A7A0A031D55
:1004A800612A7B0A031D612A00302000C000003049
:1004B800BF000330BE00E830692A7B082000C00076
:1004C8007A08BF007908BE007808BD00FD30F0004A
:1004D8000730F1005B237008F8007108F900FA0191
:1004E800FB01FE30F0000730F1005B237008F807CD
:1004F8007108F93D0030FA3DFB3DFF30F000073050
:10050800F1005B237008F400F3017308F80774081E
:10051800F93D0030FA3DFB3D0030F0000830F100B5
:100528005B237008F8077108F93D0030FA3DFB3D80
:10053800780A031DB12A790A031DB12A7A0A031D14
:10054800B12A7B0A031DB12A00302000B400003014
:10055800B3000030B2000030B92A7B082000B40094
:100568007A08B3007908B2007808B100D22A0E14CC
:10057800D22A8D17D22A7708F300F4017408003ABA
:100588000319C72AD22A7308003A0319FD29013A28
:100598000319BB2A033A0319BD2AD22A2000B7013E
:1005A800B8017708F3007308FD0008000030AB00BD
:1005B8000030AA000030A9000030A8002308220457
:1005C800210420040319232BAC01AC0AA31BF82A2D
:1005D8000130A035A10DA20DA30D890BED2A013024
:1005E800FC007C08AC07EA2A0130A835A90DAA0D41
:1005F800AB0D890BF92A23082702031D0D2B2208AE
:100608002602031D0D2B21082502031D0D2B200892
:100618002402031C182B2008A4022108A53B220849
:10062800A63B2308A73B28140130A336A20CA10C33
:10063800A00C890B192B0130AC02031DF82A2B08DA
:10064800A3002A08A2002908A1002808A000080081
:100658000030FB000030FA000030F9000030F800EC
:10066800701C3E2B7408F8077508F93D7608FA3DAA
:100678007708FB3D0130F435F50DF60DF70D890BC4
:100688003F2B0130F336F20CF10CF00C890B462BA2
:100698007308720471047004031D342B7B08F30083
:1006A8007A08F2007908F1007808F00008000030B4
:1006B8008B1B0130F2008B13700823009100710826
:1006C80092001513151400000000720C031C8B1304
:1006D80003188B1723001408F1001308F000080012
:1006E80022008C018D018E013B3021008C001030DE
:1006F8008D008E0123008E0130308D0013308C0068
:1007080024008D018C012100951722009D0108000D
:10071800F3007308F200F20DF20D21001D087206B5
:10072800833972069D001D1400320032000021003A
:100738009D149D189D2B1C08F1001B08F000080053
:100748007108F3007008F200F336F20CF336F20C7D
:1007580072082C00980070080339F2000530F23551
:10076800FF3E031DB32B72359700080021001508C2
:10077800C039113895000630200095000630F20087
:100788007208C4000B118B162830F0000430F100F9
:10079800192408000130B7070030B83D003038028E
:1007A800C93003193702031C0800BB01BB0AB70193
:1007B800B8010800420843040319080043088A00E6
:1007C80042080A00833108007423082422240024E4
:1007D800F823F023BA230800FF3020009B009A0179
:1007E80091101C309C000800D0302C009900FF307C
:1007F8009800C0309700080001309D00C0309E006E
:100808009F019B019C0108006A3021009900220089
:10081800960108000B11200044089500DE2308000B
:10082800E8340334003400340A347108C300700813
:10083800C2000800E83403340034003416302100C4
:0A084800970008001C1508000800C6
:020000040001F9
:04000E00E4FFFFDF2D
:00000001FF
