:020000040000FA
:020000000C28CA
:100008007E1480318B1A0B1D0A28ED257E100900FD
:100018000D28C330840085308500663086000030A6
:1000280087000A30F42556308400003085001030EF
:10003800FA252100A301A401A5017E10200024288F
:10004800CD258B170130CC22A730F0000530F10008
:1000580000261426033020006A06031935280330C9
:1000680036280A30AE002E08EA0003306A06031D5F
:1000780047286A08642570082000DA007108DB0048
:10008800DC01DD014E286A0864257108F500700856
:10009800F4007C2520008C1A66286508031D662854
:1000A8000130DE070030DF3D0B305F02B930031945
:1000B8005E02031C63280130AE002E08E500220012
:1000C8008E166A28DE01DF0122008E1220006508E4
:1000D800031980298C1AA3286E280230CC22B6284E
:1000E8005D08D9005C08D8005B08D7005A08D6001C
:1000F8000330CC22B6285D08EF005C08EE005B08F0
:10010800ED005A08EC006D08D5006C08D4006F08A3
:10011800D3006E08D2005708D1005608D0005908FD
:10012800CF005808CE00EF30F3000730F400363027
:10013800AE002E08F5001C240130CC22B6286B082E
:10014800AE00AF012F08003A0319AB28B6282E08D5
:10015800013A03197128033A03197428013A03195B
:100168007F28B628E50180290A306A06031D2E2853
:100178000030A3000030A2000330A100E830A00046
:10018800210023082000AE00210024082000AF0031
:10019800210025082000B0000030B01BFF30B1005E
:1001A8005D08F3005C08F2005B08F1005A08F000F3
:1001B8006908F7006808F6006708F5006608F400A3
:1001C800C2247008B2007108B3007208B400730842
:1001D800B5002E08B2022F08B33B3008B43B3108F3
:1001E800B53B3508A7003408A6003308A500320837
:1001F800A4009B232308DD002208DC002108DB0083
:100208002008DA005D08F3005C08F2005B08F100E2
:100218005A08F00094212E28640803192E28031088
:1002280022000E1C0314031C1C2922000E141E2974
:1002380022000E1003108E1C0314031C2629220012
:100248008E14282922008E1003100E1D0314031C7F
:10025800302922000E15322922000E1103108E1D9E
:100268000314031C3A2922008E153C2922008E1102
:1002780003100E1E0314031C442922000E164629DF
:1002880022000E122000E4012E28640803192E28EB
:10029800031022000E1F0314031C552922000E17F9
:1002A800572922000E1303108E1F0314031C5F2905
:1002B80022008E17612922008E1303108D1E03144D
:1002C800031C692922008D166B2922008D12031048
:1002D8000D1F0314031C732922000D177529220012
:1002E8000D1303108D1F0314031C7D2922008D1785
:1002F800462922008D1346296B08AE00AF012F084E
:10030800003A031988292E282E08013A0319B8281B
:10031800033A03191029013A031949292E280C28F0
:1003280022000E108E100E118E110E128E160E1344
:100338008E138D120D138D13F31BAF297308031D34
:10034800B1297208031DB1297108031DB12936307E
:1003580070020318B1290E140800F31BC029730892
:10036800031DC3297208031DC3297108031DC3296E
:100378006C3070020318C3290E148E140800F31B86
:10038800D2297308031DD4297208031DD4297108C2
:10039800031DD429A23070020318D4298E14080032
:1003A800F31BE3297308031DE6297208031DE629D8
:1003B8007108031DE629D73070020318E6298E1448
:1003C8000E150800F31BF4297308031DF62972089B
:1003D800031DF6290D3070020130713B0318F62910
:1003E8000E150800F31B042A7308031D072A720858
:1003F800031D072A433070020130713B0318072A96
:100408000E158E150800F31B152A7308031D172AED
:100418007208031D172A793070020130713B0318E6
:10042800172A8E150800F31B252A7308031D282A8E
:100438007208031D282AAF3070020130713B03187F
:10044800282A8E150E160800F31B362A7308031D7A
:10045800382A7208031D382AE53070020130713BD2
:100468000318382A0E160800F31B08007308031D2A
:10047800462A7208031D462A1A3070020230713B60
:10048800031C0800F31B542A7308031D562A72081C
:10049800031D562A503070020230713B0318562A49
:1004A8000E170800F31B642A7308031D672A7208D5
:1004B800031D672A863070020230713B0318672AD1
:1004C8000E178E170800F31B752A7308031D772A69
:1004D8007208031D772ABC3070020230713B031882
:1004E800772A8E170800F31B852A7308031D882AAC
:1004F8007208031D882AF23070020230713B03181B
:10050800882A8E178D160800F31B962A7308031D78
:10051800982A7208031D982A283070020330713B0C
:100528000318982A8D160800F31BA62A7308031DC2
:10053800A92A7208031DA92A5D3070020330713B95
:100548000318A92A8D160D170800F31BB72A73087C
:10055800031DB92A7208031DB92A933070020330AB
:10056800713B0318B92A0D170800F31BC72A730833
:10057800031DCA2A7208031DCA2AC9307002033033
:10058800713B0318CA2A0D178D1708008D1708002C
:100598002000A40024086B060319080022000E108E
:1005A8008E100E118E110E128E120E138E138D12C6
:1005B8000D138D137F2B0030D9000030D800003088
:1005C800D7000030D600FC30F0000730F1003325AA
:1005D80070082000A0007108A100A201A30110303A
:1005E800A035A10DA20DA30D890BF42A2008D6076A
:1005F8002108D73D2208D83D2308D93DFD30F00019
:100608000730F100332570082000D6077108D73D60
:100618000030D83DD93D0030EF000030EE0000300A
:10062800ED000030EC00FE30F0000730F10033251B
:1006380070082000A0007108A100A201A3011030D9
:10064800A035A10DA20DA30D890B242B2008EC07C2
:100658002108ED3D2208EE3D2308EF3DFF30F00074
:100668000730F100332570082000EC077108ED3DD4
:100678000030EE3DEF3D56086C02A00057086D3B78
:10068800A10058086E3BA20059086F3BA30023083D
:10069800F3002208F2002108F1002008F0000030E1
:1006A800F7000F30F6009C30F5001830F400702485
:1006B8007308E9007208E8007108E7007008E600AE
:1006C8006608F0006708F1006808F2005608F300B1
:1006D8005708F4005808F500F12470082100A30019
:1006E8007108A4007208A500932B22000E14932B06
:1006F80022008D17932B20002408A000A1012108B7
:10070800003A0319882B932B2008013A0319DF2A92
:10071800033A0319792B013A03197C2B932B2000F8
:10072800E001E1012408A0002008EB000800A9016D
:10073800A31FAB2BA009A109A209A309A00A0319A9
:10074800A10A0319A20A0319A30AA901A90AA71F42
:10075800BC2BA409A509A609A709A40A0319A50A77
:100768000319A60A0319A70A0130FC007C08A90688
:100778000030AD000030AC000030AB000030AA0003
:1007880023082204210420040319052CA801A80A1F
:10079800A31BDA2B0130A035A10DA20DA30D890BE7
:1007A800CF2B0130FC007C08A807CC2B0130AA35E0
:1007B800AB0DAC0DAD0D890BDB2B23082702031DF8
:1007C800EF2B22082602031DEF2B21082502031D0B
:1007D800EF2B20082402031CFA2B2008A40221086E
:1007E800A53B2208A63B2308A73B2A140130A336C1
:1007F800A20CA10CA00C890BFB2B0130A802031D35
:10080800DA2B29080319132CAA09AB09AC09AD097D
:10081800AA0A0319AB0A0319AC0A0319AD0A2D0871
:10082800A3002C08A2002B08A1002A08A000080099
:10083800F0307305F90007307405FA0000308B1B9F
:100848000130FB007A087406031D2C2C7908730606
:10085800031D08008B137408F1007308F0001725B6
:10086800151315159516FC017308230091007408DB
:1008780092007C357507F600760886008701010826
:1008880093007C357507F600760886008701403F9F
:10089800F700413FF800780894000F307C060319F0
:1008A800951255309600AA30960095140000000065
:1008B8000130F3070030F43D0130F6007608FC07FC
:1008C80010307C02031C382C230015117B0C031CF0
:1008D8008B1303188B1708000030FC000030FB0056
:1008E8000030FA000030F9007308720471047004D3
:1008F8000319B92CFD01FD0AF31B8E2C0130F035CC
:10090800F10DF20DF30D890B832C0130F8007808F6
:10091800FD07802C0130F935FA0DFB0DFC0D890B14
:100928008F2C73087702031DA32C72087602031D0F
:10093800A32C71087502031DA32C70087402031CF4
:10094800AE2C7008F4027108F53B7208F63B730888
:10095800F73B79140130F336F20CF10CF00C890BEB
:10096800AF2C0130FD02031D8E2C7C08F3007B08A0
:10097800F2007A08F1007908F00008000030FB0066
:100988000030FA000030F9000030F800701CD42C58
:100998007408F8077508F93D7608FA3D7708FB3DB5
:1009A8000130F435F50DF60DF70D890BD52C013016
:1009B800F336F20CF10CF00C890BDC2C7308720482
:1009C80071047004031DCA2C7B08F3007A08F20036
:1009D8007908F1007808F00008000030F6000030CF
:1009E800F7000030F800701CFF2C7308F607740835
:1009F800F73D7508F83D0130F335F40DF50D890B19
:100A0800002D0130F236F10CF00C890B062D72081E
:100A180071047004031DF72C7608F0007708F100C4
:100A28007808F200080000308B1B0130F2008B13AD
:100A380070082300910071089200151315161515FA
:100A480055309600AA309600951400000000230047
:100A58001511720C031C8B1303188B170800003038
:100A68008B1B0130F2008B13700823009100710872
:100A780092001513151400000000720C031C8B1350
:100A880003188B1723001408F1001308F00008005E
:100A980022008C018D018E013B3021008C0010302A
:100AA8008D008E0123008E0130308D0013308C00B4
:100AB80024008D018C012100951722009D0108005A
:100AC800F3007308F200F20DF20D21001D08720602
:100AD800833972069D001D14003200320000210087
:100AE8009D149D18752D1C08F1001B08F0000800C6
:100AF8007508F7007408F600F736F60CF736F60CAA
:100B080076082C00980074080339F6000530F6358D
:100B1800FF3E031D8B2D7635970008002100150830
:100B2800C039113895000630200095000630F200D3
:100B380072082100A2000B118B161730F000063046
:100B4800F1000026080001302000E0070030E13DF8
:100B580000306102C93003196002031C0800E40177
:100B6800E40AE001E101080021002008210403193A
:100B7800080021088A0020080A0085310800E834A6
:100B88000334003400340A340134FF3403340034AD
:100B980000344C2506261026E525DD25D525922589
:100BA8000800FF3020009B009A0191101C309C0027
:100BB8000800D0302C009900FF309800C030970012
:100BC800080001309D00C0309E009F019B019C01E0
:100BD80008000B112100220820009500B825080004
:100BE800FE0012001E00FE0BF52D0034640080018B
:100BF8000131890BFB2D003471082100A100700818
:100C0800A00008006A30210099002200960108001F
:100C1800E83403340034003416302100970008000B
:080C280020001C150800080063
:020000040001F9
:04000E00E43FFF1FAD
:00000001FF
