:020000040000FA
:020000001328C3
:100008007E1480318B1E09280A2811280B1D0D2803
:100018000E2811288231E12280317E10090014282F
:100028008231FC228031FD00F801F901FA01FB015F
:10003800FC01A001A101A201A3017E102000242837
:100048008231672280318B1700308231052280315E
:10005800A930F0000230F1008231E922803182318A
:10006800F922803103307D0603193B283C284128BA
:100078000330F4007408FD0045280A30F4007408C1
:10008800FD007D088231352280317108F700700843
:10009800F60020008C1A512852286B287C08031D72
:1000A800562857286B280130A0070030A13D0B3097
:1000B8002102B93003192002031C63286428682828
:1000C8000130F4007408FC0022008E166F28A0018D
:1000D800A10122008E127C08031973287428EE29C6
:1000E80020008C1E782879287428892801308231CC
:1000F800052280319C2802308231052280319C28DB
:1001080000308231052280319C287A08F400F501FC
:100118007508003A031991289C287408003A0319B5
:100128007A28013A03197F28033A031984289C285E
:10013800FC01EE297B080319A228A32836282200EF
:100148000E148E100E118E110E128E160E138E13A3
:100158008D120D138D1336280A307D06031DB52820
:10016800B628BE287708F1007608F000823193227D
:100178008031362822000E108E100E118E110E12AC
:100188008E160E138E138D120D138D1300307702F9
:100198003630031976020318D228D328D5280E142E
:1001A8003628003077026C30031976020318DD28F0
:1001B800DE28E1280E148E14362800307702A2308B
:1001C800031976020318E928EA28EC288E14362841
:1001D80000307702D730031976020318F428F5287F
:1001E800F8288E140E153628013077020D300319C1
:1001F800760203180029012903290E153628013033
:10020800770243300319760203180B290C290F29AA
:100218000E158E15362801307702793003197602CB
:100228000318172918291A298E153628013077023C
:10023800AF300319760203182229232926298E159F
:100248000E16362801307702E530031976020318B6
:100258002E292F2931290E163628023077021A3016
:1002680003197602031839293A293B29362802301E
:100278007702503003197602031843294429462986
:100288000E173628023077028630031976020318D3
:100298004E294F2952290E178E1736280230770219
:1002A800BC300319760203185A295B295D298E1779
:1002B800362802307702F2300319760203186529CE
:1002C800662969298E178D1636280330770228305B
:1002D8000319760203187129722974298D16362894
:1002E800033077025D300319760203187C297D29D3
:1002F80080298D160D17362803307702933003199D
:1003080076020318882989298B290D173628033086
:100318007702C9300319760203189329942997297B
:100328000D178D1736288D1736287B0803199D2938
:100338009E293628031022000E1C03140318A52931
:10034800A82922000E14AA2922000E1003108E1CC0
:1003580003140318B029B32922008E14B5292200EA
:100368008E1003100E1D03140318BB29BE2922008A
:100378000E15C02922000E1103108E1D0314031838
:10038800C629C92922008E15CB2922008E110310F7
:100398000E1E03140318D129D42922000E16D629BB
:1003A80022000E12FB0136287B080319DC29DD29FF
:1003B800362822000E178E178D160D1703108D1F65
:1003C80003140318E829EB2922008D17ED292200D0
:1003D8008D13D6297A08F400F5017508003A031937
:1003E800F62936287408003A0319B028013A031987
:1003F8009929033A0319D829013A03199E2836285E
:100408001328F20072087A06031D0B2A0C2A0D2AFB
:10041800342A22000E108E100E118E110E128E121A
:100428000E138E138D120D138D131E2A0E142E2AE1
:100438008D172E2A7208F000F1017108003A03198D
:10044800262A2E2A7008013A03191A2A033A031990
:100458001C2A2E2AF801F9017208F0007008FA0027
:100468000800F3007308F200F20DF20D21001D08D8
:100478007206833972069D001D1400320032000096
:1004880021009D149D18492A4A2A462A1C08F10071
:100498001B08F000080022008C018D018E013B3002
:1004A80021008C0010308D008E0123008E01303029
:1004B8008D0013308C0024008D018C0121009517CC
:1004C80022009D01080082314F2282318231EF22C1
:1004D80082318231F52282318231C82282318231E1
:1004E800D92282318231D122823182317D228231F8
:1004F800080021001508C039113895000630200081
:1005080095000630F2007208A6000B118B16FD301C
:10051800F0000230F1008231E922823108007108CE
:10052800F3007008F200F336F20CF336F20C72089E
:100538002C00980070080339F2000530F235FF3EB0
:10054800031DA22A7235970008000130F807003011
:10055800F93D00307902C93003197802031CB52A25
:10056800B62ABA2AFB01FB0AF801F90108002000A3
:10057800240825040319C12AC22AC72A25088A0083
:1005880024080A0082310800013021009D00C03093
:100598009E009F019B019C010800FF3020009B00EA
:1005A8009A0191101C309C000800D0302C00990052
:1005B800FF309800C030970008000B112000260873
:1005C80095008231BB228231080071082000A50005
:1005D8007008A40008006A302100990022009601E2
:1005E8000800163021009700080020001C1508009C
:0405F8000A340800B9
:020000040001F9
:04000E00E4FFFFDF2D
:00000001FF
