:020000040000FA
:020000001328C3
:100008007E1480318B1E09280A2811280B1D0D2803
:100018000E2811288331FD2380317E100900142811
:10002800843118248031FA00843119248031FB008E
:1000380084311A248031B100F801F901A001A1012D
:10004800A201A301A401A501A601A701A801A90174
:10005800AA01AB017E10200031288331952380311D
:100068008B170030833112238031A830F200023020
:10007800F300843105248031843115248031033024
:1000880020003106031949284A284F280330F60072
:100098007608B10053280A30F6007608B100310816
:1000A80083316323803173082000B0007208AF00E9
:1000B8008C1A5F2860286528033083311223803129
:1000C800672822008E1220002B0803196C286D283F
:1000D800912A8C1E702871286D288128013083315F
:1000E80012238031942802308331122380319428DE
:1000F800003083311223803194282A08F600F70152
:100108007708003A0319892894287608003A0319D1
:100118007228013A03197728033A03197C2894288E
:100128002000AB01912A790803199B289C284328B1
:1001380022000E148E100E118E110E128E160E1332
:100148008E138D120D138D1343280A303106031DAB
:10015800AE28AF28B7282108F3002008F200833121
:10016800C123803143280130A4070030A53D003069
:10017800A63D0030A73D00303002363003192F026B
:100188000318C728C828CD282130FA000030FB0002
:100198004328003030026C3003192F020318D52889
:1001A800D628DB282330FA000030FB004328003033
:1001B8003002A23003192F020318E328E428E528A7
:1001C800D62800303002D73003192F020318ED2843
:1001D800EE28FB2822000E108E140E158E110E121A
:1001E8008E160E138E138D120D138D1343280130A6
:1001F80030020D3003192F0203180329042911298D
:1002080022000E108E100E158E110E128E160E1361
:100218008E138D120D138D13432801303002433095
:1002280003192F02031819291A29272922000E1049
:100238008E100E158E150E128E160E138E138D122D
:100248000D138D13432801303002793003192F0222
:1002580003182F2930293D2922000E108E100E1167
:100268008E150E128E160E138E138D120D138D13FE
:10027800432801303002AF3003192F0203184529F3
:100288004629532922000E108E100E118E150E16B7
:100298008E160E138E138D120D138D1343280130F5
:1002A8003002E53003192F0203185B295C296929FC
:1002B80022000E108E100E118E110E168E160E13B1
:1002C8008E138D120D138D134328023030021A300D
:1002D80003192F020318712972297F2922000E1091
:1002E8008E100E118E110E128E160E138E138D1285
:1002F8000D138D13432802303002503003192F029A
:10030800031887298829952922000E108E100E11AE
:100318008E110E128E160E178E138D120D138D134D
:10032800432802303002863003192F0203189D2912
:100338009E29AB2922000E108E100E118E110E125E
:100348008E160E178E178D120D138D13432802303B
:100358003002BC3003192F020318B329B429C1296C
:1003680022000E108E100E118E110E128E160E1304
:100378008E178D120D138D13432802303002F23080
:1003880003192F020318C929CA29D72922000E10D8
:100398008E100E118E110E128E160E138E178D16CC
:1003A8000D138D13432803303002283003192F0210
:1003B8000318DF29E029ED2922000E108E100E11F6
:1003C8008E110E128E160E138E138D160D138D139D
:1003D8004328033030025D3003192F020318F52932
:1003E800F629032A22000E108E100E118E110E12FD
:1003F8008E160E138E138D160D178D13432803308A
:100408003002933003192F0203180B2A0C2A192AD9
:1004180022000E108E100E118E110E128E160E1353
:100428008E138D120D178D13432803303002C930F7
:1004380003192F020318212A222A2F2A22000E101C
:100448008E100E118E110E128E160E138E138D1223
:100458000D178D17432822000E108E100E118E11C5
:100468000E128E160E138E138D120D138D17432830
:1004780079080319402A412A4328031022000E1C38
:1004880003140318482A4B2A22000E144D2A22006E
:100498000E1003108E1C03140318532A562A220028
:1004A8008E14582A22008E1003100E1D03140318F0
:1004B8005E2A612A22000E15632A22000E110310FB
:1004C8008E1D03140318692A6C2A22008E156E2AC1
:1004D80022008E1103100E1E03140318742A772AA3
:1004E80022000E16792A22000E12F90143287908F3
:1004F80003197F2A802A432822000E178E178D168B
:100508000D1703108D1F031403188B2A8E2A22003F
:100518008D17902A22008D13792A2A08F600F701F0
:100528007708003A0319992A43287608003A0319EC
:10053800A928013A03193C2A033A03197B2A013AEC
:10054800031997284328132801302000A0070030FA
:10055800A13D0030A23D0030A33D2308031DBF2A62
:100568002208031DBF2A003020020430213B031C4F
:10057800BE2ABF2ACB2A0130F0007008F9000030EB
:10058800A3000030A2000030A1000030A00022002B
:100598000E108E100E118E110E128E120E138E1357
:1005A8008D120D138D13F02A7A1CDB2ADC2A062BF8
:1005B8000E14062BFA1CE12AE22A062B8E14062BAF
:1005C8007A1DE72AE82A062B0E15062BFA1DED2AB6
:1005D800EE2A062B8E15062B7808F000F10171081B
:1005E800003A0319F82A062B7008003A0319D82A8A
:1005F800013A0319DE2A033A0319E42A013A0319D6
:10060800EA2A062B0130F0007008F8070B30780250
:10061800031C0F2B102B112BF8010800F400740891
:1006280020002A06031D192B1A2B422B622B2200AD
:100638000E108E100E118E110E128E160E138E13B2
:100648008D120D138D13552B22000E148E100E11C2
:100658008E110E128E120E138E138D120D138D1312
:10066800552B22000E108E100E118E110E128E16A2
:100678000E178E178D160D178D17552B7408F2004F
:10068800F3017308003A03194A2B552B7208003AF4
:1006980003191B2B013A0319282B033A0319352B8D
:1006A800552B00302000A3000030A2000030A1002C
:1006B8000030A0007408F2007208AA000800F500D3
:1006C8007508F400F40DF40D21001D087406833933
:1006D80074069D001D1400320032000021009D1494
:1006E8009D18772B782B742B1C08F3001B08F2003D
:1006F800080022008C018D018E013B3021008C0006
:1007080010308D008E0123008E0130308D001330A3
:100718008C0024008D018C012100951722009D0179
:10072800080083317D23833184310B248331843164
:10073800112483318331E42383318331F5238331D9
:100748008331ED2383318331AB23833108002100CA
:100758001508C039123895004530200095004530FD
:10076800F4007408AE000B118B161B30F200043035
:10077800F30084310524833108007308F5007208FA
:10078800F400F536F40CF536F40C74082C009800D7
:1007980072080339F4000530F435FF3E031DD02BF1
:1007A80074359700080020002C082D040319DD2B50
:1007B800DE2BE32B2D088A002C080A008331080061
:1007C800013021009D00C0309E009F019B019C01CB
:1007D8000800FF3020009B009A0191103C309C00DB
:1007E8000800C0302C009900FF309800C0309700F6
:1007F80008000B1120002E0895008331D723833180
:10080800080073082000AD007208AC0008006A30C8
:100818002100990022009601080016302100970057
:10082800080020001C150800FF3407340A340800AB
:020000040001F9
:04000E00E4FFFFDF2D
:00000001FF
