:020000040000FA
:0400000000000C28C8
:100008007E1480318B1A0B1D0A2853267E10090096
:100018000D2818308400863085005E308600003058
:100028008700093041264A308400003085001430AA
:1000380047267E102000202821268B170130D22247
:10004800FE30F0000530F100592666260330200006
:10005800620603193128033032280A30C0004008EC
:10006800E20003306206031D43286208BC257008BD
:100078002000CE007108CF00D001D101712862089C
:10008800BC2571082000C9007008C8004908C100D3
:100098004808C000C035C10D4008183EC8000030EF
:1000A800413DC9004908803AC00083304002031D21
:1000B8005F28E9304802031C6728E8302000C800A0
:1000C8000330C9006C282000C91F6C28C801C90169
:1000D8004908F1004808F000D42520008C1A8C2823
:1000E8005D08031D8C280130D5070030D63D0B3044
:1000F8005602B93003195502031C89280130C00083
:100108004008DD0022008E128E2822008E168E28CE
:10011800D501D60120005D08031986298C1AAF285D
:1001280092280230D222C2285108CD005008CC00B3
:100138004F08CB004E08CA000330D222C22851080B
:10014800E6005008E5004F08E4004E08E3004F259C
:100158000130D222C2285B08C000C1014108003A20
:100168000319B728C2284008013A03199528033A09
:1001780003199828013A0319A328C228DD01862902
:100188000A306206031D2A280030A3000030A200AE
:100198000330A100E830A0005208C0005308C10095
:1001A8005408C2000030C21BFF30C3005108F300DE
:1001B8005008F2004F08F1004E08F0006108F700FF
:1001C8006008F6005F08F5005E08F400FA2470087D
:1001D800C4007108C5007208C6007308C70040084B
:1001E800C4024108C53B4208C63B4308C73B470811
:1001F800A7004608A6004508A5004408A4006B23EC
:100208002308D1002208D0002108CF002008CE0002
:100218005108F3005008F2004F08F1004E08F000B2
:100228009A212A285C0803192A28031022000E1C88
:100238000314031C222922000E14242922000E1064
:1002480003108E1C0314031C2C2922008E142E2943
:1002580022008E1003100E1D0314031C36292200E1
:100268000E15382922000E1103108E1D0314031CCD
:10027800402922008E15422922008E1103100E1EDD
:100288000314031C4A2922000E164C2922000E12C0
:100298002000DC012A285C0803192A280310220000
:1002A8000E1F0314031C5B2922000E175D29220070
:1002B8000E1303108E1F0314031C652922008E17CA
:1002C800672922008E1303108D1E0314031C6F2947
:1002D80022008D16712922008D1203100D1F0314A0
:1002E800031C792922000D177B2922000D13031006
:1002F8008D1F0314031C832922008D174C2922000B
:100308008D134C295B08C000C1014108003A03194C
:100318008E292A284008013A0319C428033A0319E8
:100328001629013A03194F292A280C2822000E10F1
:100338008E100E118E110E128E160E138E138D1234
:100348000D138D13F31BB5297308031DB729720804
:10035800031DB7297108031DB72936307002031829
:10036800B7290E140800F31BC6297308031DC929F1
:100378007208031DC9297108031DC9296C30700250
:100388000318C9290E148E140800F31BD829730802
:10039800031DDA297208031DDA297108031DDA29F9
:1003A800A23070020318DA298E140800F31BE92919
:1003B8007308031DEC297208031DEC297108031D3D
:1003C800EC29D73070020318EC298E140E1508009A
:1003D800F31BFA297308031DFC297208031DFC2965
:1003E8000D3070020130713B0318FC290E1508000E
:1003F800F31B0A2A7308031D0D2A7208031D0D2A10
:10040800433070020130713B03180D2A0E158E150A
:100418000800F31B1B2A7308031D1D2A7208031DFD
:100428001D2A793070020130713B03181D2A8E1580
:100438000800F31B2B2A7308031D2E2A7208031DBC
:100448002E2AAF3070020130713B03182E2A8E1508
:100458000E160800F31B3C2A7308031D3E2A720877
:10046800031D3E2AE53070020130713B03183E2A15
:100478000E160800F31B08007308031D4C2A7208A7
:10048800031D4C2A1A3070020230713B031C08000D
:10049800F31B5A2A7308031D5C2A7208031D5C2A81
:1004A800503070020230713B03185C2A0E170800A6
:1004B800F31B6A2A7308031D6D2A7208031D6D2A2F
:1004C800863070020230713B03186D2A0E178E17A2
:1004D8000800F31B7B2A7308031D7D2A7208031D7D
:1004E8007D2ABC3070020230713B03187D2A8E17BA
:1004F8000800F31B8B2A7308031D8E2A7208031D3C
:100508008E2AF23070020230713B03188E2A8E1741
:100518008D160800F31B9C2A7308031D9E2A720877
:10052800031D9E2A283070020330713B03189E2A4F
:100538008D160800F31BAC2A7308031DAF2A720836
:10054800031DAF2A5D3070020330713B0318AF2AD8
:100558008D160D170800F31BBD2A7308031DBF2A4B
:100568007208031DBF2A933070020330713B0318D1
:10057800BF2A0D170800F31BCD2A7308031DD02AC4
:100588007208031DD02AC93070020330713B03186A
:10059800D02A0D178D1708008D1708002000A40019
:1005A80024085B060319080022000E108E100E1195
:1005B8008E110E128E120E138E138D120D138D13B3
:1005C8004F2BEC236608031DF02A6508031DF02A4B
:1005D80004306402031CF82A0030E6000030E5000D
:1005E8000330E400FF30E3004D086602031D062BCC
:1005F8004C086502031D062B4B086402031D062BDD
:100608004A0863020318102B0030CD000030CC00DC
:100618000030CB000030CA004A086302A0004B0833
:10062800643BA1004C08653BA2004D08663BA30053
:100638002308F3002208F2002108F1002008F00046
:100648000030F7000F30F6009C30F5001830F40049
:10065800A8247308E1007208E0007108DF00700840
:10066800DE005E08F0005F08F1006008F2004A084A
:10067800F3004B08F4004C08F50029257008D20057
:100688007108D3007208D400632B22000E14632B68
:1006980022008D17632B20002408A000A101210847
:1006A800003A0319582B632B2008013A0319E52A4D
:1006B800033A0319492B013A03194C2B632B2000E9
:1006C800D701D8012408A0002008DB000800A901F0
:1006D800A31F7B2BA009A109A209A309A00A03193A
:1006E800A10A0319A20A0319A30AA901A90AA71FA3
:1006F8008C2BA409A509A609A709A40A0319A50A08
:100708000319A60A0319A70A0130FC007C08A906E8
:100718000030AD000030AC000030AB000030AA0063
:1007280023082204210420040319D52BA801A80AB0
:10073800A31BAA2B0130A035A10DA20DA30D890B77
:100748009F2B0130FC007C08A8079C2B0130AA35A0
:10075800AB0DAC0DAD0D890BAB2B23082702031D88
:10076800BF2B22082602031DBF2B21082502031DCB
:10077800BF2B20082402031CCA2B2008A40221082E
:10078800A53B2208A63B2308A73B2A140130A33621
:10079800A20CA10CA00C890BCB2B0130A802031DC5
:1007A800AA2B29080319E32BAA09AB09AC09AD093F
:1007B800AA0A0319AB0A0319AC0A0319AD0A2D08D2
:1007C800A3002C08A2002B08A1002A08A0000800FA
:1007D8000030CD000030CC000030CB000030CA0023
:1007E800FC30F0000730F1008B257008F300710829
:1007F800F400F501F6011030F335F40DF50DF60DA2
:10080800890B002C73082000CA077408CB3D7508B3
:10081800CC3D7608CD3DFD30F0000730F1008B254A
:100828007008F3007108F400F501F6017308200060
:10083800CA047408CB047508CC047608CD040030CB
:10084800E6000030E5000030E4000030E300FE3050
:10085800F0000730F1008B257008F3007108F400F0
:10086800F501F6011030F335F40DF50DF60D890B91
:10087800372C73082000E3077408E43D7508E53D4C
:100888007608E63DFF30F0000730F1008B25700850
:100898002000E3077108E43D0030E53DE63D08002F
:1008A800F0307305F90007307405FA0000308B1B2F
:1008B8000130FB007A087406031D642C790873065E
:1008C800031D08008B137408F1007308F0006F25EE
:1008D800151315159516FC0173082300910074086B
:1008E80092007C357507F6007608860087010108B6
:1008F80093007C357507F600760886008701403F2F
:10090800F700413FF800780894000F307C0603197F
:10091800951255309600AA309600951400000000F4
:100928000130F3070030F43D0130F6007608FC078B
:1009380010307C02031C702C230015117B0C031C47
:100948008B1303188B1708000030FC000030FB00E5
:100958000030FA000030F900730872047104700462
:100968000319F12CFD01FD0AF31BC62C0130F035EB
:10097800F10DF20DF30D890BBB2C0130F80078084E
:10098800FD07B82C0130F935FA0DFB0DFC0D890B6C
:10099800C72C73087702031DDB2C72087602031D2F
:1009A800DB2C71087502031DDB2C70087402031C14
:1009B800E62C7008F4027108F53B7208F63B7308E0
:1009C800F73B79140130F336F20CF10CF00C890B7B
:1009D800E72C0130FD02031DC62C7C08F3007B08C0
:1009E800F2007A08F1007908F00008000030FB00F6
:1009F8000030FA000030F9000030F800701C0C2DAF
:100A08007408F8077508F93D7608FA3D7708FB3D44
:100A18000130F435F50DF60DF70D890B0D2D01306C
:100A2800F336F20CF10CF00C890B142D73087204D8
:100A380071047004031D022D7B08F3007A08F2008C
:100A48007908F1007808F00008000030F60000305E
:100A5800F7000030F800701C372D7308F60774088B
:100A6800F73D7508F83D0130F335F40DF50D890BA8
:100A7800382D0130F236F10CF00C890B3E2D72083E
:100A880071047004031D2F2D7608F0007708F1001B
:100A98007808F2000800F030F0000730F1006F2508
:100AA80020006408BF006308BE006608BD00650832
:100AB800BC004B08BB004A08BA004D08B9004C08F6
:100AC800B800F030F3000730F4002030FD007D0856
:100AD800F5005424080000308B1B0130F2008B1302
:100AE800700823009100710892001513151615154A
:100AF80055309600AA309600951400000000230097
:100B08001511720C031C8B1303188B170800003087
:100B18008B1B0130F2008B137008230091007108C1
:100B280092001513151400000000720C031C8B139F
:100B380003188B1723001408F1001308F0000800AD
:100B480022008C018D018E013B3021008C00103079
:100B58008D008E0123008E0130308D0013308C0003
:100B680024008D018C012100951722009D010800A9
:100B7800F3007308F200F20DF20D21001D08720651
:100B8800833972069D001D140032003200002100D6
:100B98009D149D18CD2D1C08F1001B08F0000800BD
:100BA8007108F3007008F200F336F20CF336F20C19
:100BB80072082C00980070080339F2000530F235ED
:100BC800FF3E031DE32D723597000800210015082C
:100BD800C039113895000630200095000630F20023
:100BE8007208E9000B118B166830F0000630F1002E
:100BF800592608000130D7070030D83D0030580288
:100C0800C93003195702031C0800DC01DC0AD701AC
:100C1800D8010800670868040319080068088A00F2
:100C280067080A0086310800E834033400340034C9
:100C38000A34FF34033400340034A4254D266226D8
:100C4800392631262926EA250800FF3020009B0096
:100C58009A0191101C309C000800D0302C0099009B
:100C6800FF309800C03097000800C0309E009F01F8
:100C78009B019C0101309D000800FE0012001E002F
:100C8800FE0B422E0034640080010131890B482E8E
:100C980000346A30210099002200960108000B11E7
:100CA8002000690895000E2608007108E800700801
:100CB800E7000800E834033400340034163021001B
:0A0CC800970008001C150800080042
:020000040001F9
:04000E00643FFF1F2D
:00000001FF
