:020000040000FA
:0400000000000C28C8
:100008007E1480318B1A0B1D0A280F267E100900DA
:100018000D28C9308400853085005B3086000030AB
:1000280087000A30FD2548308400003085001330F1
:1000380003267E1020002028DD258B1701302D2374
:10004800B930F0000530F10015262226DA249C2369
:10005800033020005F0603193328033034280A30A0
:10006800C0004008DF0003305F06031D45285F0815
:10007800772570082000CC007108CD00CE01CF0193
:100088004C285F0877257108F5007008F4008F2563
:1000980020008C1A64285A08031D64280130D307ED
:1000A8000030D43D0B305402B93003195302031CFD
:1000B80061280130C0004008DA0022008E16682846
:1000C800D301D40122008E1220005A080319602996
:1000D8008C1A89286C2802302D239C284F08CB00C5
:1000E8004E08CA004D08C9004C08C80003302D232B
:1000F8009C284F08E4004E08E3004D08E2004C0835
:10010800E100DA2401302D239C286008C000C101D9
:100118004108003A031991289C284008013A03191C
:100128006F28033A03197228013A03197D289C287D
:10013800DA0160290A305F06031D2C280030A3006D
:100148000030A2000330A100E830A0005008C00031
:100158005108C1005208C2000030C21BFF30C30062
:100168004F08F3004E08F2004D08F1004C08F0006B
:100178005E08F7005D08F6005C08F5005B08F4000F
:10018800AB247008C4007108C5007208C600730863
:10019800C7004008C4024108C53B4208C63B4308A3
:1001A800C73B4708A7004608A6004508A50044081D
:1001B800A400AC222308CF002208CE002108CD00DD
:1001C8002008CC004F08F3004E08F2004D08F1005B
:1001D8004C08F00074212C28590803192C28031006
:1001E80022000E1C0314031CFC2822000E14FE28F7
:1001F80022000E1003108E1C0314031C0629220073
:100208008E14082922008E1003100E1D0314031CDF
:10021800102922000E15122922000E1103108E1D1E
:100228000314031C1A2922008E151C2922008E1182
:1002380003100E1E0314031C242922000E1626295F
:1002480022000E122000D9012C28590803192C2845
:10025800031022000E1F0314031C352922000E1759
:10026800372922000E1303108E1F0314031C3F2985
:1002780022008E17412922008E1303108D1E0314AD
:10028800031C492922008D164B2922008D120310C8
:100298000D1F0314031C532922000D175529220092
:1002A8000D1303108D1F0314031C5D2922008D17E5
:1002B800262922008D1326296008C000C1014108A3
:1002C800003A031968292C284008013A03199E2886
:1002D800033A0319F028013A031929292C280C2874
:1002E80022000E108E100E118E110E128E160E1385
:1002F8008E138D120D138D13F31B8F297308031D95
:1003080091297208031D91297108031D912936301E
:100318007002031891290E140800F31BA029730812
:10032800031DA3297208031DA3297108031DA3290E
:100338006C3070020318A3290E148E140800F31BE6
:10034800B2297308031DB4297208031DB429710862
:10035800031DB429A23070020318B4298E140800B2
:10036800F31BC3297308031DC6297208031DC62978
:100378007108031DC629D73070020318C6298E14C8
:100388000E150800F31BD4297308031DD62972081B
:10039800031DD6290D3070020130713B0318D62990
:1003A8000E150800F31BE4297308031DE7297208DA
:1003B800031DE729433070020130713B0318E72918
:1003C8000E158E150800F31BF5297308031DF72970
:1003D8007208031DF729793070020130713B031848
:1003E800F7298E150800F31B052A7308031D082A30
:1003F8007208031D082AAF3070020130713B0318E0
:10040800082A8E150E160800F31B162A7308031DFA
:10041800182A7208031D182AE53070020130713B52
:100428000318182A0E160800F31B08007308031D8A
:10043800262A7208031D262A1A3070020230713BE0
:10044800031C0800F31B342A7308031D362A72089C
:10045800031D362A503070020230713B0318362AC9
:100468000E170800F31B442A7308031D472A720855
:10047800031D472A863070020230713B0318472A51
:100488000E178E170800F31B552A7308031D572AE9
:100498007208031D572ABC3070020230713B0318E2
:1004A800572A8E170800F31B652A7308031D682A4C
:1004B8007208031D682AF23070020230713B03187B
:1004C800682A8E178D160800F31B762A7308031DF9
:1004D800782A7208031D782A283070020330713B8D
:1004E8000318782A8D160800F31B862A7308031D43
:1004F800892A7208031D892A5D3070020330713B16
:100508000318892A8D160D170800F31B972A7308FC
:10051800031D992A7208031D992A9330700203302B
:10052800713B0318992A0D170800F31BA72A7308B3
:10053800031DAA2A7208031DAA2AC93070020330B3
:10054800713B0318AA2A0D178D1708008D1708008C
:10055800A901A31FBC2AA009A109A209A309A00AED
:100568000319A10A0319A20A0319A30AA901A90ACE
:10057800A71FCD2AA409A509A609A709A40A031932
:10058800A50A0319A60A0319A70A0130FC007C086A
:10059800A9060030AD000030AC000030AB000030E0
:1005A800AA0023082204210420040319162BA801F9
:1005B800A80AA31BEB2A0130A035A10DA20DA30D9B
:1005C800890BE02A0130FC007C08A807DD2A0130ED
:1005D800AA35AB0DAC0DAD0D890BEC2A230827020B
:1005E800031D002B22082602031D002B21082502CB
:1005F800031D002B20082402031C0B2B2008A40237
:100608002108A53B2208A63B2308A73B2A14013052
:10061800A336A20CA10CA00C890B0C2B0130A8024C
:10062800031DEB2A29080319242BAA09AB09AC09D5
:10063800AD09AA0A0319AB0A0319AC0A0319AD0AD2
:100648002D08A3002C08A2002B08A1002A08A0004E
:1006580008002000A40024086006031908002200EE
:100668000E108E100E118E110E128E120E138E1386
:100678008D120D138D13802B9C2348086102A00056
:100688004908623BA1004A08633BA2004B08643B4F
:10069800A3002308F3002208F2002108F100200833
:1006A800F0000030F7000F30F6009C30F5001830ED
:1006B800F40059247308DE007208DD007108DC00BC
:1006C8007008DB005B08F0005C08F1005D08F200D0
:1006D8004808F3004908F4004A08F50004257008A2
:1006E800D0007108D1007208D200942B22000E1499
:1006F800942B22008D17942B20002408A000A10120
:100708002108003A0319892B942B2008013A031970
:10071800402B033A03197A2B013A03197D2B942BAA
:100728002000D501D6012408A0002008E000080018
:1007380000302000CB000030CA000030C900003073
:10074800C800FC30F0000730F10046257008F300BF
:100758007108F400F501F6011030F335F40DF50DCC
:10076800F60D890BB12B73082000C8077408C93D22
:100778007508CA3D7608CB3DFD30F0000730F10022
:1007880046257008F3007108F400F501F6017308B6
:100798002000C8047408C9047508CA047608CB0484
:1007A8000030E4000030E3000030E2000030E100F7
:1007B800FE30F0000730F10046257008F30071089C
:1007C800F400F501F6011030F335F40DF50DF60DD2
:1007D800890BE82B73082000E1077408E23D7508CF
:1007E800E33D7608E43DFF30F0000730F100462590
:1007F80070082000E1077108E23D0030E33DE43D68
:100808000800F0307305F90007307405FA0000306D
:100818008B1B0130FB007A087406031D152C790820
:100828007306031D08008B137408F1007308F000A9
:100838002A25151315159516FC0173082300910038
:10084800740892007C357507F600760886008701E3
:10085800010893007C357507F60076088600870145
:10086800403FF700413FF800780894000F307C06BD
:100878000319951255309600AA3096009514000079
:1008880000000130F3070030F43D0130F60076082F
:10089800FC0710307C02031C212C230015117B0C53
:1008A800031C8B1303188B1708000030FC00003062
:1008B800FB000030FA000030F9007308720471047C
:1008C80070040319A22CFD01FD0AF31B772C0130DB
:1008D800F035F10DF20DF30D890B6C2C0130F80099
:1008E8007808FD07692C0130F935FA0DFB0DFC0D70
:1008F800890B782C73087702031D8C2C72087602FA
:10090800031D8C2C71087502031D8C2C7008740251
:10091800031C972C7008F4027108F53B7208F63B2B
:100928007308F73B79140130F336F20CF10CF00C34
:10093800890B982C0130FD02031D772C7C08F300ED
:100948007B08F2007A08F1007908F000080000300E
:10095800FB000030FA000030F9000030F800701C8D
:10096800BD2C7408F8077508F93D7608FA3D770834
:10097800FB3D0130F435F50DF60DF70D890BBE2C56
:100988000130F336F20CF10CF00C890BC52C73080E
:10099800720471047004031DB32C7B08F3007A08F9
:1009A800F2007908F1007808F00008001130E4003E
:1009B8002230E3003330E2004430E1001130CB0054
:1009C800DD30CA00EE30C900FF30C8006208BF0041
:1009D8006108BE006408BD006308BC004908BB008C
:1009E8004808BA004B08B9004A08B800F030F300CC
:1009F8000730F4002030FD007D08F50005240800CC
:100A08000030F6000030F7000030F800701C122D9E
:100A18007308F6077408F73D7508F83D0130F3359B
:100A2800F40DF50D890B132D0130F236F10CF00C95
:100A3800890B192D720871047004031D0A2D76089C
:100A4800F0007708F1007808F200080000308B1BEE
:100A58000130F2008B137008230091007108920096
:100A680015131516151555309600AA3096009514CD
:100A78000000000023001511720C031C8B130318CF
:100A88008B17080000308B1B0130F2008B137008A5
:100A9800230091007108920015131514000000003E
:100AA800720C031C8B1303188B1723001408F10016
:100AB8001308F000080022008C018D018E013B30E4
:100AC80021008C0010308D008E0123008E01303003
:100AD8008D0013308C0024008D018C0121009517A6
:100AE80022009D010800F3007308F200F20DF20DD8
:100AF80021001D087206833972069D001D140032FC
:100B08000032000021009D149D18882D1C08F1005A
:100B18001B08F00008007508F7007408F600F7369F
:100B2800F60CF736F60C76082C0098007408033992
:100B3800F6000530F635FF3E031D9E2D76359700ED
:100B4800080021001508C03911389500063020002A
:100B580095000630F2007208E7000B118B1624305E
:100B6800F0000630F100152608000130D5070030E6
:100B7800D63D00305602C93003195502031C08003F
:100B8800D901D90AD501D6010800E8340334003464
:100B980000340A340134FF34033400340034650867
:100BA80066040319080066088A0065080A0085318A
:100BB80008005F2509261E26F525ED25E525A5252E
:100BC8000800FF3020009B009A0191101C309C0007
:100BD8000800D0302C009900FF309800C0309700F2
:100BE8000800C0309E009F019B019C0101309D00C0
:100BF8000800FE0012001E00FE0BFE2D00346400EB
:100C080080010131890B042E00346A3021009900DB
:100C18002200960108000B11200067089500D325D3
:100C280008007108E6007008E5000800E83403349D
:100C38000034003416302100970008001C15080005
:020C48000800A2
:020000040001F9
:04000E00E43FFF1FAD
:00000001FF
