:020000040000FA
:0400000000000C28C8
:100008007E1480318B1A0B1D0A282C267E100900BD
:100018000D28F1308400853085005C308600003082
:10002800870009301A2648308400003085001430D3
:1000380020267E1020002028FA258B170130AB22BD
:10004800D730F0000530F10032263F26033020007B
:10005800600603193128033032280A30C0004008EE
:10006800E00003306006031D4328600895257008EA
:100078002000CC007108CD00CE01CF014A286008CD
:1000880095257108F5007008F400AD2520008C1A3C
:1000980063285B08031D63280130D3070030D43D73
:1000A8000B305402B93003195302031C6028013085
:1000B800C0004008DB00652822008E166728D3019F
:1000C800D40122008E1220005B0803195F298C1AC4
:1000D80088286B280230AB229B284F08CB004E089B
:1000E800CA004D08C9004C08C8000330AB229B2841
:1000F8004F08E4004E08E3004D08E2004C08E10018
:1001080028250130AB229B285908C000C1014108AD
:10011800003A031990289B284008013A03196E28D1
:10012800033A03197128013A03197C289B28DB013B
:100138005F290A306006031D2A280030A30000301A
:10014800A2000330A100E830A0005008C000510808
:10015800C1005208C2000030C21BFF30C3004F0864
:10016800F3004E08F2004D08F1004C08F0005F085B
:10017800F7005E08F6005D08F5005C08F400D3247B
:100188007008C4007108C5007208C6007308C7006B
:100198004008C4024108C53B4208C63B4308C73B68
:1001A8004708A7004608A6004508A5004408A4007B
:1001B80044232308CF002208CE002108CD002008C0
:1001C800CC004F08F3004E08F2004D08F1004C082F
:1001D800F00073212A285A0803192A28031022003C
:1001E8000E1C0314031CFB2822000E14FD282200F9
:1001F8000E1003108E1C0314031C052922008E14F4
:10020800072922008E1003100E1D0314031C0F294A
:1002180022000E15112922000E1103108E1D031441
:10022800031C192922008E151B2922008E11031088
:100238000E1E0314031C232922000E162529220052
:100248000E122000DA012A285A0803192A28031056
:1002580022000E1F0314031C342922000E1736290E
:1002680022000E1303108E1F0314031C3E292200C4
:100278008E17402922008E1303108D1E0314031CB1
:10028800482922008D164A2922008D1203100D1FBD
:100298000314031C522922000D17542922000D13A0
:1002A80003108D1F0314031C5C2922008D172529B8
:1002B80022008D1325295908C000C1014108003AC0
:1002C800031967292A284008013A03199D28033A87
:1002D8000319EF28013A031928292A280C28220093
:1002E8000E108E100E118E110E128E160E138E1306
:1002F8008D120D138D13F31B8E297308031D90297E
:100308007208031D90297108031D90293630700268
:10031800031890290E140800F31B9F297308031D66
:10032800A2297208031DA2297108031DA2296C3095
:1003380070020318A2290E148E140800F31BB129A9
:100348007308031DB3297208031DB3297108031D1F
:10035800B329A23070020318B3298E140800F31BC6
:10036800C2297308031DC5297208031DC529710810
:10037800031DC529D73070020318C5298E140E1520
:100388000800F31BD3297308031DD5297208031D20
:10039800D5290D3070020130713B0318D5290E158F
:1003A8000800F31BE3297308031DE6297208031DDF
:1003B800E629433070020130713B0318E6290E1517
:1003C8008E150800F31BF4297308031DF62972081B
:1003D800031DF629793070020130713B0318F629A4
:1003E8008E150800F31B042A7308031D072A7208D8
:1003F800031D072AAF3070020130713B0318072A2A
:100408008E150E160800F31B152A7308031D172AEC
:100418007208031D172AE53070020130713B03187A
:10042800172A0E160800F31B08007308031D252A57
:100438007208031D252A1A3070020230713B031C12
:100448000800F31B332A7308031D352A7208031D9D
:10045800352A503070020230713B0318352A0E17C6
:100468000800F31B432A7308031D462A7208031D5C
:10047800462A863070020230713B0318462A0E174E
:100488008E170800F31B542A7308031D562A720896
:10049800031D562ABC3070020230713B0318562ADD
:1004A8008E170800F31B642A7308031D672A720855
:1004B800031D672AF23070020230713B0318672A65
:1004C8008E178D160800F31B752A7308031D772AEB
:1004D8007208031D772A283070020330713B031815
:1004E800772A8D160800F31B852A7308031D882AAE
:1004F8007208031D882A5D3070020330713B0318AF
:10050800882A8D160D170800F31B962A7308031DF9
:10051800982A7208031D982A933070020330713BA1
:100528000318982A0D170800F31BA62A7308031D41
:10053800A92A7208031DA92AC93070020330713B29
:100548000318A92A0D178D1708008D170800200019
:10055800A400240859060319080022000E108E1062
:100568000E118E110E128E120E138E138D120D1384
:100578008D13282BC5236408031DC92A6308031D8E
:10058800C92A04306202031CD12A0030E40000307A
:10059800E3000330E200FF30E1004B086402031D72
:1005A800DF2A4A086302031DDF2A49086202031D85
:1005B800DF2A480861020318E92A0030CB0000301E
:1005C800CA000030C9000030C80048086102A00015
:1005D8004908623BA1004A08633BA2004B08643B00
:1005E800A3002308F3002208F2002108F1002008E4
:1005F800F0000030F7000F30F6009C30F50018309E
:10060800F40081247308DF007208DE007108DD0041
:100618007008DC005C08F0005D08F1005E08F2007C
:100628004808F3004908F4004A08F5000225700854
:10063800D0007108D1007208D2003C2B22000E14A1
:100648003C2B22008D173C2B20002408A000A10180
:100658002108003A0319312B3C2B2008013A0319D1
:10066800BE2A033A0319222B013A0319252B3C2BE6
:100678002000D501D6012408A0002008D9000800D0
:10068800A901A31F542BA009A109A209A309A00A23
:100698000319A10A0319A20A0319A30AA901A90A9D
:1006A800A71F652BA409A509A609A709A40A031968
:1006B800A50A0319A60A0319A70A0130FC007C0839
:1006C800A9060030AD000030AC000030AB000030AF
:1006D800AA0023082204210420040319AE2BA80130
:1006E800A80AA31B832B0130A035A10DA20DA30DD1
:1006F800890B782B0130FC007C08A807752B01308A
:10070800AA35AB0DAC0DAD0D890B842B2308270240
:10071800031D982B22082602031D982B2108250269
:10072800031D982B20082402031CA32B2008A402D5
:100738002108A53B2208A63B2308A73B2A14013021
:10074800A336A20CA10CA00C890BA42B0130A80283
:10075800031D832B29080319BC2BAA09AB09AC0973
:10076800AD09AA0A0319AB0A0319AC0A0319AD0AA1
:100778002D08A3002C08A2002B08A1002A08A0001D
:1007880008000030CB000030CA000030C90000303B
:10079800C800FC30F0000730F10064257008F30051
:1007A8007108F400F501F6011030F335F40DF50D7C
:1007B800F60D890BD92B73082000C8077408C93DAA
:1007C8007508CA3D7608CB3DFD30F0000730F100D2
:1007D80064257008F3007108F400F501F601730848
:1007E8002000C8047408C9047508CA047608CB0434
:1007F8000030E4000030E3000030E2000030E100A7
:10080800FE30F0000730F10064257008F30071082D
:10081800F400F501F6011030F335F40DF50DF60D81
:10082800890B102C73082000E1077408E23D750855
:10083800E33D7608E43DFF30F0000730F100642521
:1008480070082000E1077108E23D0030E33DE43D17
:100858000800F0307305F90007307405FA0000301D
:100868008B1B0130FB007A087406031D3D2C7908A8
:100878007306031D08008B137408F1007308F00059
:100888004825151315159516FC01730823009100CA
:10089800740892007C357507F60076088600870193
:1008A800010893007C357507F600760886008701F5
:1008B800403FF700413FF800780894000F307C066D
:1008C8000319951255309600AA3096009514000029
:1008D80000000130F3070030F43D0130F6007608DF
:1008E800FC0710307C02031C492C230015117B0CDB
:1008F800031C8B1303188B1708000030FC00003012
:10090800FB000030FA000030F9007308720471042B
:1009180070040319CA2CFD01FD0AF31B9F2C01303A
:10092800F035F10DF20DF30D890B942C0130F80020
:100938007808FD07912C0130F935FA0DFB0DFC0DF7
:10094800890BA02C73087702031DB42C7208760259
:10095800031DB42C71087502031DB42C70087402B1
:10096800031CBF2C7008F4027108F53B7208F63BB3
:100978007308F73B79140130F336F20CF10CF00CE4
:10098800890BC02C0130FD02031D9F2C7C08F3004D
:100998007B08F2007A08F1007908F00008000030BE
:1009A800FB000030FA000030F9000030F800701C3D
:1009B800E52C7408F8077508F93D7608FA3D7708BC
:1009C800FB3D0130F435F50DF60DF70D890BE62CDE
:1009D8000130F336F20CF10CF00C890BED2C730896
:1009E800720471047004031DDB2C7B08F3007A0881
:1009F800F2007908F1007808F00008000030F600ED
:100A08000030F7000030F800701C102D7308F6074E
:100A18007408F73D7508F83D0130F335F40DF50D10
:100A2800890B112D0130F236F10CF00C890B172DC2
:100A3800720871047004031D082D7608F000770809
:100A4800F1007808F2000800F030F0000730F100FB
:100A5800482520006208BF006108BE006408BD0088
:100A68006308BC004908BB004808BA004B08B90035
:100A78004A08B800F030F3000730F4002030FD00D9
:100A88007D08F5002D24080000308B1B0130F20092
:100A98008B13700823009100710892001513151626
:100AA800151555309600AA309600951400000000E0
:100AB80023001511720C031C8B1303188B170800E5
:100AC80000308B1B0130F2008B137008230091005B
:100AD800710892001513151400000000720C031C15
:100AE8008B1303188B1723001408F1001308F00068
:100AF800080022008C018D018E013B3021008C0002
:100B080010308D008E0123008E0130308D0013309F
:100B18008C0024008D018C012100951722009D0175
:100B28000800F3007308F200F20DF20D21001D0811
:100B38007206833972069D001D14003200320000CF
:100B480021009D149D18A62D1C08F1001B08F0001B
:100B580008007508F7007408F600F736F60CF73643
:100B6800F60C76082C00980074080339F600053056
:100B7800F635FF3E031DBC2D763597000800210091
:100B88001508C03911389500063020009500063048
:100B9800F2007208E7000B118B164130F0000630A6
:100BA800F100322608000130D5070030D63D00306C
:100BB8005602C93003195502031C0800DA01DA0A83
:100BC800D501D601080065086604031908006608FF
:100BD8008A0065080A0085310800E83403340034C7
:100BE80000340A34FF340334003400347D252626CB
:100BF8003B2612260A260226C3250800FF302000BD
:100C08009B009A0191101C309C000800D0302C00E9
:100C18009900FF309800C03097000800C0309E004F
:100C28009F019B019C0101309D000800FE001200FD
:100C38001E00FE0B1B2E0034640080010131890B5D
:100C4800212E00346A302100990022009601080004
:100C58000B11200067089500E72508007108E600D9
:100C68007008E5000800E834033400340034163016
:0C0C78002100970008001C15080008006F
:020000040001F9
:04000E00E43FFF1FAD
:00000001FF
